{
  "_format": "hh-sol-artifact-1",
  "contractName": "VerifyJWT",
  "sourceName": "contracts/VerifyJWT.sol",
  "abi": [
    {
      "anonymous": false,
      "inputs": [
        {
          "indexed": false,
          "internalType": "address",
          "name": "previousAdmin",
          "type": "address"
        },
        {
          "indexed": false,
          "internalType": "address",
          "name": "newAdmin",
          "type": "address"
        }
      ],
      "name": "AdminChanged",
      "type": "event"
    },
    {
      "anonymous": false,
      "inputs": [
        {
          "indexed": true,
          "internalType": "address",
          "name": "beacon",
          "type": "address"
        }
      ],
      "name": "BeaconUpgraded",
      "type": "event"
    },
    {
      "anonymous": false,
      "inputs": [
        {
          "indexed": false,
          "internalType": "bool",
          "name": "result_",
          "type": "bool"
        }
      ],
      "name": "JWTVerification",
      "type": "event"
    },
    {
      "anonymous": false,
      "inputs": [
        {
          "indexed": false,
          "internalType": "bool",
          "name": "result_",
          "type": "bool"
        }
      ],
      "name": "KeyAuthorization",
      "type": "event"
    },
    {
      "anonymous": false,
      "inputs": [
        {
          "indexed": true,
          "internalType": "address",
          "name": "previousOwner",
          "type": "address"
        },
        {
          "indexed": true,
          "internalType": "address",
          "name": "newOwner",
          "type": "address"
        }
      ],
      "name": "OwnershipTransferred",
      "type": "event"
    },
    {
      "anonymous": false,
      "inputs": [
        {
          "indexed": true,
          "internalType": "address",
          "name": "implementation",
          "type": "address"
        }
      ],
      "name": "Upgraded",
      "type": "event"
    },
    {
      "anonymous": false,
      "inputs": [
        {
          "indexed": false,
          "internalType": "bytes",
          "name": "result_",
          "type": "bytes"
        }
      ],
      "name": "modExpEventForTesting",
      "type": "event"
    },
    {
      "inputs": [
        {
          "internalType": "address",
          "name": "",
          "type": "address"
        }
      ],
      "name": "JWTForAddress",
      "outputs": [
        {
          "internalType": "string",
          "name": "",
          "type": "string"
        }
      ],
      "stateMutability": "view",
      "type": "function"
    },
    {
      "inputs": [
        {
          "internalType": "uint256",
          "name": "x",
          "type": "uint256"
        },
        {
          "internalType": "uint256",
          "name": "y",
          "type": "uint256"
        }
      ],
      "name": "XOR",
      "outputs": [
        {
          "internalType": "uint256",
          "name": "",
          "type": "uint256"
        }
      ],
      "stateMutability": "pure",
      "type": "function"
    },
    {
      "inputs": [
        {
          "internalType": "bytes",
          "name": "",
          "type": "bytes"
        }
      ],
      "name": "addressForCreds",
      "outputs": [
        {
          "internalType": "address",
          "name": "",
          "type": "address"
        }
      ],
      "stateMutability": "view",
      "type": "function"
    },
    {
      "inputs": [
        {
          "internalType": "string",
          "name": "",
          "type": "string"
        }
      ],
      "name": "addressForJWT",
      "outputs": [
        {
          "internalType": "address",
          "name": "",
          "type": "address"
        }
      ],
      "stateMutability": "view",
      "type": "function"
    },
    {
      "inputs": [
        {
          "internalType": "address",
          "name": "a",
          "type": "address"
        }
      ],
      "name": "addressToBytes",
      "outputs": [
        {
          "internalType": "bytes",
          "name": "",
          "type": "bytes"
        }
      ],
      "stateMutability": "pure",
      "type": "function"
    },
    {
      "inputs": [],
      "name": "bottomBread",
      "outputs": [
        {
          "internalType": "bytes",
          "name": "",
          "type": "bytes"
        }
      ],
      "stateMutability": "view",
      "type": "function"
    },
    {
      "inputs": [
        {
          "internalType": "bytes32",
          "name": "b_",
          "type": "bytes32"
        }
      ],
      "name": "bytes32ToBytes",
      "outputs": [
        {
          "internalType": "bytes",
          "name": "",
          "type": "bytes"
        }
      ],
      "stateMutability": "pure",
      "type": "function"
    },
    {
      "inputs": [
        {
          "internalType": "bytes32",
          "name": "b_",
          "type": "bytes32"
        }
      ],
      "name": "bytes32ToUInt256",
      "outputs": [
        {
          "internalType": "uint256",
          "name": "u_",
          "type": "uint256"
        }
      ],
      "stateMutability": "pure",
      "type": "function"
    },
    {
      "inputs": [
        {
          "internalType": "bytes",
          "name": "a_",
          "type": "bytes"
        },
        {
          "internalType": "bytes",
          "name": "b_",
          "type": "bytes"
        }
      ],
      "name": "bytesAreEqual",
      "outputs": [
        {
          "internalType": "bool",
          "name": "",
          "type": "bool"
        }
      ],
      "stateMutability": "pure",
      "type": "function"
    },
    {
      "inputs": [
        {
          "internalType": "bytes",
          "name": "input_",
          "type": "bytes"
        }
      ],
      "name": "bytesToFirst32BytesAsBytes32Type",
      "outputs": [
        {
          "internalType": "bytes32",
          "name": "b_",
          "type": "bytes32"
        }
      ],
      "stateMutability": "pure",
      "type": "function"
    },
    {
      "inputs": [
        {
          "internalType": "bytes",
          "name": "input_",
          "type": "bytes"
        }
      ],
      "name": "bytesToLast32BytesAsBytes32Type",
      "outputs": [
        {
          "internalType": "bytes32",
          "name": "b_",
          "type": "bytes32"
        }
      ],
      "stateMutability": "pure",
      "type": "function"
    },
    {
      "inputs": [
        {
          "internalType": "address",
          "name": "a",
          "type": "address"
        },
        {
          "internalType": "string",
          "name": "jwt",
          "type": "string"
        }
      ],
      "name": "checkJWTProof",
      "outputs": [
        {
          "internalType": "bool",
          "name": "",
          "type": "bool"
        }
      ],
      "stateMutability": "view",
      "type": "function"
    },
    {
      "inputs": [
        {
          "internalType": "address",
          "name": "a",
          "type": "address"
        },
        {
          "internalType": "bytes32",
          "name": "jwtHash",
          "type": "bytes32"
        }
      ],
      "name": "checkJWTProof",
      "outputs": [
        {
          "internalType": "bool",
          "name": "",
          "type": "bool"
        }
      ],
      "stateMutability": "view",
      "type": "function"
    },
    {
      "inputs": [
        {
          "internalType": "bytes32",
          "name": "proof",
          "type": "bytes32"
        }
      ],
      "name": "commitJWTProof",
      "outputs": [],
      "stateMutability": "nonpayable",
      "type": "function"
    },
    {
      "inputs": [
        {
          "internalType": "address",
          "name": "",
          "type": "address"
        }
      ],
      "name": "credsForAddress",
      "outputs": [
        {
          "internalType": "bytes",
          "name": "",
          "type": "bytes"
        }
      ],
      "stateMutability": "view",
      "type": "function"
    },
    {
      "inputs": [
        {
          "internalType": "bytes",
          "name": "m",
          "type": "bytes"
        },
        {
          "internalType": "uint256",
          "name": "start",
          "type": "uint256"
        },
        {
          "internalType": "uint256",
          "name": "end",
          "type": "uint256"
        }
      ],
      "name": "destructivelySliceBytesMemory",
      "outputs": [
        {
          "internalType": "bytes",
          "name": "r",
          "type": "bytes"
        }
      ],
      "stateMutability": "pure",
      "type": "function"
    },
    {
      "inputs": [],
      "name": "e",
      "outputs": [
        {
          "internalType": "uint256",
          "name": "",
          "type": "uint256"
        }
      ],
      "stateMutability": "view",
      "type": "function"
    },
    {
      "inputs": [],
      "name": "getRegisteredAddresses",
      "outputs": [
        {
          "internalType": "address[]",
          "name": "",
          "type": "address[]"
        }
      ],
      "stateMutability": "view",
      "type": "function"
    },
    {
      "inputs": [],
      "name": "getRegisteredCreds",
      "outputs": [
        {
          "internalType": "bytes[]",
          "name": "",
          "type": "bytes[]"
        }
      ],
      "stateMutability": "view",
      "type": "function"
    },
    {
      "inputs": [
        {
          "internalType": "uint256",
          "name": "newE",
          "type": "uint256"
        },
        {
          "internalType": "bytes",
          "name": "newN",
          "type": "bytes"
        },
        {
          "internalType": "string",
          "name": "newKid",
          "type": "string"
        }
      ],
      "name": "handleKeyRotation",
      "outputs": [],
      "stateMutability": "nonpayable",
      "type": "function"
    },
    {
      "inputs": [
        {
          "internalType": "address",
          "name": "owner",
          "type": "address"
        },
        {
          "internalType": "address",
          "name": "viewer",
          "type": "address"
        }
      ],
      "name": "hasAccess",
      "outputs": [
        {
          "internalType": "bool",
          "name": "result",
          "type": "bool"
        }
      ],
      "stateMutability": "view",
      "type": "function"
    },
    {
      "inputs": [
        {
          "internalType": "uint256",
          "name": "e_",
          "type": "uint256"
        },
        {
          "internalType": "bytes",
          "name": "n_",
          "type": "bytes"
        },
        {
          "internalType": "bytes",
          "name": "signature_",
          "type": "bytes"
        }
      ],
      "name": "hashFromSignature",
      "outputs": [
        {
          "internalType": "bytes32",
          "name": "",
          "type": "bytes32"
        }
      ],
      "stateMutability": "nonpayable",
      "type": "function"
    },
    {
      "inputs": [
        {
          "internalType": "uint256",
          "name": "exponent_",
          "type": "uint256"
        },
        {
          "internalType": "bytes",
          "name": "modulus_",
          "type": "bytes"
        },
        {
          "internalType": "string",
          "name": "kid_",
          "type": "string"
        },
        {
          "internalType": "bytes",
          "name": "bottomBread_",
          "type": "bytes"
        },
        {
          "internalType": "bytes",
          "name": "topBread_",
          "type": "bytes"
        }
      ],
      "name": "initialize",
      "outputs": [],
      "stateMutability": "nonpayable",
      "type": "function"
    },
    {
      "inputs": [],
      "name": "kid",
      "outputs": [
        {
          "internalType": "string",
          "name": "",
          "type": "string"
        }
      ],
      "stateMutability": "view",
      "type": "function"
    },
    {
      "inputs": [
        {
          "internalType": "bytes",
          "name": "signature",
          "type": "bytes"
        },
        {
          "internalType": "bytes32",
          "name": "headerAndPayloadHash",
          "type": "bytes32"
        }
      ],
      "name": "linkPrivateJWT",
      "outputs": [],
      "stateMutability": "nonpayable",
      "type": "function"
    },
    {
      "inputs": [
        {
          "internalType": "bytes",
          "name": "base",
          "type": "bytes"
        },
        {
          "internalType": "uint256",
          "name": "exponent",
          "type": "uint256"
        },
        {
          "internalType": "bytes",
          "name": "modulus",
          "type": "bytes"
        }
      ],
      "name": "modExp",
      "outputs": [
        {
          "internalType": "bytes",
          "name": "o",
          "type": "bytes"
        }
      ],
      "stateMutability": "nonpayable",
      "type": "function"
    },
    {
      "inputs": [],
      "name": "n",
      "outputs": [
        {
          "internalType": "bytes",
          "name": "",
          "type": "bytes"
        }
      ],
      "stateMutability": "view",
      "type": "function"
    },
    {
      "inputs": [],
      "name": "owner",
      "outputs": [
        {
          "internalType": "address",
          "name": "",
          "type": "address"
        }
      ],
      "stateMutability": "view",
      "type": "function"
    },
    {
      "inputs": [
        {
          "internalType": "address",
          "name": "",
          "type": "address"
        },
        {
          "internalType": "address",
          "name": "",
          "type": "address"
        }
      ],
      "name": "privateJWTAllowances",
      "outputs": [
        {
          "internalType": "bool",
          "name": "",
          "type": "bool"
        }
      ],
      "stateMutability": "view",
      "type": "function"
    },
    {
      "inputs": [
        {
          "internalType": "address",
          "name": "",
          "type": "address"
        }
      ],
      "name": "privateJWTForAddress",
      "outputs": [
        {
          "internalType": "bytes32",
          "name": "",
          "type": "bytes32"
        }
      ],
      "stateMutability": "view",
      "type": "function"
    },
    {
      "inputs": [
        {
          "internalType": "bytes32",
          "name": "",
          "type": "bytes32"
        }
      ],
      "name": "proofToBlock",
      "outputs": [
        {
          "internalType": "uint256",
          "name": "",
          "type": "uint256"
        }
      ],
      "stateMutability": "view",
      "type": "function"
    },
    {
      "inputs": [],
      "name": "proxiableUUID",
      "outputs": [
        {
          "internalType": "bytes32",
          "name": "",
          "type": "bytes32"
        }
      ],
      "stateMutability": "view",
      "type": "function"
    },
    {
      "inputs": [
        {
          "internalType": "uint256",
          "name": "",
          "type": "uint256"
        }
      ],
      "name": "registeredAddresses",
      "outputs": [
        {
          "internalType": "address",
          "name": "",
          "type": "address"
        }
      ],
      "stateMutability": "view",
      "type": "function"
    },
    {
      "inputs": [
        {
          "internalType": "uint256",
          "name": "",
          "type": "uint256"
        }
      ],
      "name": "registeredCreds",
      "outputs": [
        {
          "internalType": "bytes",
          "name": "",
          "type": "bytes"
        }
      ],
      "stateMutability": "view",
      "type": "function"
    },
    {
      "inputs": [],
      "name": "renounceOwnership",
      "outputs": [],
      "stateMutability": "nonpayable",
      "type": "function"
    },
    {
      "inputs": [
        {
          "internalType": "address",
          "name": "viewer",
          "type": "address"
        },
        {
          "internalType": "bool",
          "name": "value",
          "type": "bool"
        }
      ],
      "name": "setAccess",
      "outputs": [],
      "stateMutability": "nonpayable",
      "type": "function"
    },
    {
      "inputs": [
        {
          "internalType": "bytes",
          "name": "input_",
          "type": "bytes"
        },
        {
          "internalType": "uint256",
          "name": "start_",
          "type": "uint256"
        },
        {
          "internalType": "uint256",
          "name": "end_",
          "type": "uint256"
        }
      ],
      "name": "sliceBytesMemory",
      "outputs": [
        {
          "internalType": "bytes",
          "name": "r",
          "type": "bytes"
        }
      ],
      "stateMutability": "view",
      "type": "function"
    },
    {
      "inputs": [
        {
          "internalType": "string",
          "name": "s",
          "type": "string"
        }
      ],
      "name": "stringToBytes",
      "outputs": [
        {
          "internalType": "bytes",
          "name": "",
          "type": "bytes"
        }
      ],
      "stateMutability": "pure",
      "type": "function"
    },
    {
      "inputs": [
        {
          "internalType": "address",
          "name": "a",
          "type": "address"
        }
      ],
      "name": "testAddressByteConversion",
      "outputs": [
        {
          "internalType": "bool",
          "name": "",
          "type": "bool"
        }
      ],
      "stateMutability": "pure",
      "type": "function"
    },
    {
      "inputs": [
        {
          "internalType": "string",
          "name": "jwt",
          "type": "string"
        }
      ],
      "name": "testSHA256OnJWT",
      "outputs": [
        {
          "internalType": "bytes32",
          "name": "",
          "type": "bytes32"
        }
      ],
      "stateMutability": "pure",
      "type": "function"
    },
    {
      "inputs": [],
      "name": "topBread",
      "outputs": [
        {
          "internalType": "bytes",
          "name": "",
          "type": "bytes"
        }
      ],
      "stateMutability": "view",
      "type": "function"
    },
    {
      "inputs": [
        {
          "internalType": "address",
          "name": "newOwner",
          "type": "address"
        }
      ],
      "name": "transferOwnership",
      "outputs": [],
      "stateMutability": "nonpayable",
      "type": "function"
    },
    {
      "inputs": [
        {
          "internalType": "address",
          "name": "newImplementation",
          "type": "address"
        }
      ],
      "name": "upgradeTo",
      "outputs": [],
      "stateMutability": "nonpayable",
      "type": "function"
    },
    {
      "inputs": [
        {
          "internalType": "address",
          "name": "newImplementation",
          "type": "address"
        },
        {
          "internalType": "bytes",
          "name": "data",
          "type": "bytes"
        }
      ],
      "name": "upgradeToAndCall",
      "outputs": [],
      "stateMutability": "payable",
      "type": "function"
    },
    {
      "inputs": [
        {
          "internalType": "uint256",
          "name": "",
          "type": "uint256"
        }
      ],
      "name": "verifiedUsers",
      "outputs": [
        {
          "internalType": "bytes32",
          "name": "",
          "type": "bytes32"
        }
      ],
      "stateMutability": "view",
      "type": "function"
    },
    {
      "inputs": [
        {
          "internalType": "bytes",
          "name": "signature",
          "type": "bytes"
        },
        {
          "internalType": "string",
          "name": "headerAndPayload",
          "type": "string"
        }
      ],
      "name": "verifyJWT",
      "outputs": [
        {
          "internalType": "bool",
          "name": "",
          "type": "bool"
        }
      ],
      "stateMutability": "nonpayable",
      "type": "function"
    },
    {
      "inputs": [
        {
          "internalType": "bytes",
          "name": "signature",
          "type": "bytes"
        },
        {
          "internalType": "string",
          "name": "jwt",
          "type": "string"
        },
        {
          "internalType": "uint256",
          "name": "payloadIdxStart",
          "type": "uint256"
        },
        {
          "internalType": "uint256",
          "name": "idxStart",
          "type": "uint256"
        },
        {
          "internalType": "uint256",
          "name": "idxEnd",
          "type": "uint256"
        },
        {
          "internalType": "bytes",
          "name": "proposedIDSandwich",
          "type": "bytes"
        }
      ],
      "name": "verifyMe",
      "outputs": [],
      "stateMutability": "nonpayable",
      "type": "function"
    }
  ],
  "bytecode": "0x60a06040523073ffffffffffffffffffffffffffffffffffffffff1660809073ffffffffffffffffffffffffffffffffffffffff1660601b81525034801561004657600080fd5b5060805160601c615a25620000826000396000818161109d0152818161112c015281816119bd01528181611a4c0152611b8a0152615a256000f3fe6080604052600436106102885760003560e01c8063715018a61161015a578063b84614a5116100c1578063ded8454a1161007a578063ded8454a14610b01578063df41040314610b3e578063e106fb4b14610b7b578063f2fde38b14610bb8578063fadf549614610be1578063ffae15ba14610c0c57610288565b8063b84614a5146109cb578063bc56ce9a146109f4578063bfa51c4914610a31578063c1d7b2de14610a5c578063d3d1bc8914610a87578063dec4951914610ac457610288565b806392d6075e1161011357806392d6075e1461088557806396339ab4146108ae5780639ce1c84c146108d75780639e02dfa614610914578063a12830fe14610951578063a23baab41461098e57610288565b8063715018a6146107635780637477e6251461077a57806383af17f7146107b7578063843f9891146107f4578063886dbdf6146108315780638da5cb5b1461085a57610288565b8063308e4dfa116101fe5780634f1ef286116101b75780634f1ef2861461063a57806351c3ee131461065657806352d1902d1461068157806359454e0f146106ac57806361e10782146106e95780636e9b85551461072657610288565b8063308e4dfa146105085780633659cfe6146105315780633e4a8b8b1461055a578063413f77b41461058357806346f3a79c146105c05780634c0999c7146105fd57610288565b8063194b342811610250578063194b3428146103be5780631f32b49c146103fb578063227ef0611461043857806324a74125146104635780632e52d606146104a05780633025a687146104cb57610288565b806301c899651461028d578063030e4747146102ca578063062be72f1461030757806307763ec3146103445780631709ef0714610381575b600080fd5b34801561029957600080fd5b506102b460048036038101906102af9190613c5c565b610c37565b6040516102c191906149d2565b60405180910390f35b3480156102d657600080fd5b506102f160048036038101906102ec9190613b2b565b610ca2565b6040516102fe91906149ed565b60405180910390f35b34801561031357600080fd5b5061032e60048036038101906103299190614067565b610cba565b60405161033b9190614a08565b60405180910390f35b34801561035057600080fd5b5061036b60048036038101906103669190614067565b610d66565b60405161037891906149ed565b60405180910390f35b34801561038d57600080fd5b506103a860048036038101906103a39190613b54565b610d8a565b6040516103b591906149d2565b60405180910390f35b3480156103ca57600080fd5b506103e560048036038101906103e09190613d02565b610e1e565b6040516103f291906149ed565b60405180910390f35b34801561040757600080fd5b50610422600480360381019061041d9190614119565b610e30565b60405161042f91906149ed565b60405180910390f35b34801561044457600080fd5b5061044d610e59565b60405161045a919061498e565b60405180910390f35b34801561046f57600080fd5b5061048a60048036038101906104859190614026565b610ee7565b6040516104979190614973565b60405180910390f35b3480156104ac57600080fd5b506104b5610f30565b6040516104c29190614a08565b60405180910390f35b3480156104d757600080fd5b506104f260048036038101906104ed9190613b54565b610fbe565b6040516104ff91906149d2565b60405180910390f35b34801561051457600080fd5b5061052f600480360381019061052a9190614090565b610fed565b005b34801561053d57600080fd5b5061055860048036038101906105539190613b2b565b61109b565b005b34801561056657600080fd5b50610581600480360381019061057c9190613e6f565b61124a565b005b34801561058f57600080fd5b506105aa60048036038101906105a59190613d02565b61193c565b6040516105b79190614973565b60405180910390f35b3480156105cc57600080fd5b506105e760048036038101906105e2919061426f565b611985565b6040516105f49190614d2c565b60405180910390f35b34801561060957600080fd5b50610624600480360381019061061f9190613cb0565b611992565b6040516106319190614a08565b60405180910390f35b610654600480360381019061064f9190613c08565b6119bb565b005b34801561066257600080fd5b5061066b611af8565b6040516106789190614a08565b60405180910390f35b34801561068d57600080fd5b50610696611b86565b6040516106a391906149ed565b60405180910390f35b3480156106b857600080fd5b506106d360048036038101906106ce9190613d02565b611c3f565b6040516106e091906149ed565b60405180910390f35b3480156106f557600080fd5b50610710600480360381019061070b9190613cb0565b611c52565b60405161071d9190614d2c565b60405180910390f35b34801561073257600080fd5b5061074d60048036038101906107489190614067565b611c60565b60405161075a9190614973565b60405180910390f35b34801561076f57600080fd5b50610778611c9f565b005b34801561078657600080fd5b506107a1600480360381019061079c9190614026565b611d27565b6040516107ae91906149ed565b60405180910390f35b3480156107c357600080fd5b506107de60048036038101906107d99190613b2b565b611d88565b6040516107eb9190614a08565b60405180910390f35b34801561080057600080fd5b5061081b60048036038101906108169190613b2b565b611e28565b6040516108289190614a2a565b60405180910390f35b34801561083d57600080fd5b5061085860048036038101906108539190613d43565b611ec8565b005b34801561086657600080fd5b5061086f612001565b60405161087c9190614973565b60405180910390f35b34801561089157600080fd5b506108ac60048036038101906108a79190614198565b61202b565b005b3480156108ba57600080fd5b506108d560048036038101906108d09190613cb0565b61219c565b005b3480156108e357600080fd5b506108fe60048036038101906108f99190613fbf565b6121fe565b60405161090b9190614a08565b60405180910390f35b34801561092057600080fd5b5061093b60048036038101906109369190613fbf565b612258565b6040516109489190614a08565b60405180910390f35b34801561095d57600080fd5b5061097860048036038101906109739190613cb0565b612306565b6040516109859190614d2c565b60405180910390f35b34801561099a57600080fd5b506109b560048036038101906109b09190613b2b565b61231e565b6040516109c291906149d2565b60405180910390f35b3480156109d757600080fd5b506109f260048036038101906109ed9190613b90565b612366565b005b348015610a0057600080fd5b50610a1b6004803603810190610a169190613f40565b6123fe565b604051610a289190614a08565b60405180910390f35b348015610a3d57600080fd5b50610a466124bd565b604051610a539190614a2a565b60405180910390f35b348015610a6857600080fd5b50610a7161254b565b604051610a7e91906149b0565b60405180910390f35b348015610a9357600080fd5b50610aae6004803603810190610aa99190613e03565b612624565b604051610abb91906149d2565b60405180910390f35b348015610ad057600080fd5b50610aeb6004803603810190610ae69190613d97565b6126ce565b604051610af891906149d2565b60405180910390f35b348015610b0d57600080fd5b50610b286004803603810190610b239190613b2b565b6126f6565b604051610b359190614a08565b60405180910390f35b348015610b4a57600080fd5b50610b656004803603810190610b609190613bcc565b61271f565b604051610b7291906149d2565b60405180910390f35b348015610b8757600080fd5b50610ba26004803603810190610b9d9190614026565b6128b3565b604051610baf9190614a08565b60405180910390f35b348015610bc457600080fd5b50610bdf6004803603810190610bda9190613b2b565b6128dc565b005b348015610bed57600080fd5b50610bf66129d4565b604051610c039190614a08565b60405180910390f35b348015610c1857600080fd5b50610c21612a62565b604051610c2e9190614d2c565b60405180910390f35b6000610c9a836002610c48856128b3565b604051610c55919061490a565b602060405180830381855afa158015610c72573d6000803e3d6000fd5b5050506040513d601f19601f82011682018060405250810190610c959190613cd9565b61271f565b905092915050565b60cd6020528060005260406000206000915090505481565b60d08181548110610cca57600080fd5b906000526020600020016000915090508054610ce59061505d565b80601f0160208091040260200160405190810160405280929190818152602001828054610d119061505d565b8015610d5e5780601f10610d3357610100808354040283529160200191610d5e565b820191906000526020600020905b815481529060010190602001808311610d4157829003601f168201915b505050505081565b60d78181548110610d7657600080fd5b906000526020600020016000915090505481565b600060ce60008473ffffffffffffffffffffffffffffffffffffffff1673ffffffffffffffffffffffffffffffffffffffff16815260200190815260200160002060008373ffffffffffffffffffffffffffffffffffffffff1673ffffffffffffffffffffffffffffffffffffffff16815260200190815260200160002060009054906101000a900460ff16905092915050565b60008151808301805192505050919050565b600080610e3e8386866123fe565b90506000610e4b82610e1e565b905080925050509392505050565b606060cf805480602002602001604051908101604052809291908181526020018280548015610edd57602002820191906000526020600020905b8160009054906101000a900473ffffffffffffffffffffffffffffffffffffffff1673ffffffffffffffffffffffffffffffffffffffff1681526020019060010190808311610e93575b5050505050905090565b60ca818051602081018201805184825260208301602085012081835280955050505050506000915054906101000a900473ffffffffffffffffffffffffffffffffffffffff1681565b60d38054610f3d9061505d565b80601f0160208091040260200160405190810160405280929190818152602001828054610f699061505d565b8015610fb65780601f10610f8b57610100808354040283529160200191610fb6565b820191906000526020600020905b815481529060010190602001808311610f9957829003601f168201915b505050505081565b60ce6020528160005260406000206020528060005260406000206000915091509054906101000a900460ff1681565b610ff5612a68565b73ffffffffffffffffffffffffffffffffffffffff16611013612001565b73ffffffffffffffffffffffffffffffffffffffff1614611069576040517f08c379a000000000000000000000000000000000000000000000000000000000815260040161106090614bac565b60405180910390fd5b8460d281905550838360d39190611081929190613729565b50818160d491906110939291906137af565b505050505050565b7f000000000000000000000000000000000000000000000000000000000000000073ffffffffffffffffffffffffffffffffffffffff163073ffffffffffffffffffffffffffffffffffffffff16141561112a576040517f08c379a000000000000000000000000000000000000000000000000000000000815260040161112190614aac565b60405180910390fd5b7f000000000000000000000000000000000000000000000000000000000000000073ffffffffffffffffffffffffffffffffffffffff16611169612a70565b73ffffffffffffffffffffffffffffffffffffffff16146111bf576040517f08c379a00000000000000000000000000000000000000000000000000000000081526004016111b690614acc565b60405180910390fd5b6111c881612ac7565b61124781600067ffffffffffffffff81111561120d577f4e487b7100000000000000000000000000000000000000000000000000000000600052604160045260246000fd5b6040519080825280601f01601f19166020018201604052801561123f5781602001600182028036833780820191505090505b506000612b46565b50565b6000611255866128b3565b9050611262338888612cc3565b6112a1576040517f08c379a000000000000000000000000000000000000000000000000000000000815260040161129890614b0c565b60405180910390fd5b60006112af82878451612258565b905060006040518060400160405280600181526020017f3d0000000000000000000000000000000000000000000000000000000000000081525090505b6000600483516112fc91906150ee565b146113345761130b8251612df6565b818160405160200161131e929190614921565b60405160208183030381529060405291506112ec565b600061133f83612e8f565b90506113ee61135e86600060d680546113579061505d565b9050612258565b60d6805461136b9061505d565b80601f01602080910402602001604051908101604052809291908181526020018280546113979061505d565b80156113e45780601f106113b9576101008083540402835291602001916113e4565b820191906000526020600020905b8154815290600101906020018083116113c757829003601f168201915b50505050506126ce565b61142d576040517f08c379a000000000000000000000000000000000000000000000000000000000815260040161142490614ccc565b60405180910390fd5b6114e66114568660d580546114419061505d565b9050885161144f9190614f95565b8851612258565b60d580546114639061505d565b80601f016020809104026020016040519081016040528092919081815260200182805461148f9061505d565b80156114dc5780601f106114b1576101008083540402835291602001916114dc565b820191906000526020600020905b8154815290600101906020018083116114bf57829003601f168201915b50505050506126ce565b611525576040517f08c379a000000000000000000000000000000000000000000000000000000000815260040161151c90614bcc565b60405180910390fd5b611539611533828989612258565b866126ce565b611578576040517f08c379a000000000000000000000000000000000000000000000000000000000815260040161156f90614c4c565b60405180910390fd5b60006115ad8660d6805461158b9061505d565b905060d5805461159a9061505d565b905089516115a89190614f95565b612258565b9050600073ffffffffffffffffffffffffffffffffffffffff1660ca8b6040516115d7919061495c565b908152602001604051809103902060009054906101000a900473ffffffffffffffffffffffffffffffffffffffff1673ffffffffffffffffffffffffffffffffffffffff161461165c576040517f08c379a000000000000000000000000000000000000000000000000000000000815260040161165390614a4c565b60405180910390fd5b60d95460cb60003373ffffffffffffffffffffffffffffffffffffffff1673ffffffffffffffffffffffffffffffffffffffff1681526020019081526020016000206040516116ab9190614945565b6040518091039020141561171d5760cf339080600181540180825580915050600190039060005260206000200160009091909190916101000a81548173ffffffffffffffffffffffffffffffffffffffff021916908373ffffffffffffffffffffffffffffffffffffffff1602179055505b600073ffffffffffffffffffffffffffffffffffffffff1660cc82604051611745919061490a565b908152602001604051809103902060009054906101000a900473ffffffffffffffffffffffffffffffffffffffff1673ffffffffffffffffffffffffffffffffffffffff1614156117cd5760d0819080600181540180825580915050600190039060005260206000200160009091909190915090805190602001906117cb929190613835565b505b3360ca8b6040516117de919061495c565b908152602001604051809103902060006101000a81548173ffffffffffffffffffffffffffffffffffffffff021916908373ffffffffffffffffffffffffffffffffffffffff1602179055503360cc8260405161183b919061490a565b908152602001604051809103902060006101000a81548173ffffffffffffffffffffffffffffffffffffffff021916908373ffffffffffffffffffffffffffffffffffffffff1602179055508960c960003373ffffffffffffffffffffffffffffffffffffffff1673ffffffffffffffffffffffffffffffffffffffff16815260200190815260200160002090805190602001906118da9291906138bb565b508060cb60003373ffffffffffffffffffffffffffffffffffffffff1673ffffffffffffffffffffffffffffffffffffffff168152602001908152602001600020908051906020019061192e929190613835565b505050505050505050505050565b60cc818051602081018201805184825260208301602085012081835280955050505050506000915054906101000a900473ffffffffffffffffffffffffffffffffffffffff1681565b6000818318905092915050565b6060816040516020016119a591906148ef565b6040516020818303038152906040529050919050565b7f000000000000000000000000000000000000000000000000000000000000000073ffffffffffffffffffffffffffffffffffffffff163073ffffffffffffffffffffffffffffffffffffffff161415611a4a576040517f08c379a0000000000000000000000000000000000000000000000000000000008152600401611a4190614aac565b60405180910390fd5b7f000000000000000000000000000000000000000000000000000000000000000073ffffffffffffffffffffffffffffffffffffffff16611a89612a70565b73ffffffffffffffffffffffffffffffffffffffff1614611adf576040517f08c379a0000000000000000000000000000000000000000000000000000000008152600401611ad690614acc565b60405180910390fd5b611ae882612ac7565b611af482826001612b46565b5050565b60d68054611b059061505d565b80601f0160208091040260200160405190810160405280929190818152602001828054611b319061505d565b8015611b7e5780601f10611b5357610100808354040283529160200191611b7e565b820191906000526020600020905b815481529060010190602001808311611b6157829003601f168201915b505050505081565b60007f000000000000000000000000000000000000000000000000000000000000000073ffffffffffffffffffffffffffffffffffffffff163073ffffffffffffffffffffffffffffffffffffffff1614611c16576040517f08c379a0000000000000000000000000000000000000000000000000000000008152600401611c0d90614aec565b60405180910390fd5b7f360894a13ba1a3210667c828492db98dca3e2076cc3735a920a3ca505d382bbc60001b905090565b600060208201518060601c915050919050565b600060148201519050919050565b60cf8181548110611c7057600080fd5b906000526020600020016000915054906101000a900473ffffffffffffffffffffffffffffffffffffffff1681565b611ca7612a68565b73ffffffffffffffffffffffffffffffffffffffff16611cc5612001565b73ffffffffffffffffffffffffffffffffffffffff1614611d1b576040517f08c379a0000000000000000000000000000000000000000000000000000000008152600401611d1290614bac565b60405180910390fd5b611d2560006130cf565b565b60006002611d34836128b3565b604051611d41919061490a565b602060405180830381855afa158015611d5e573d6000803e3d6000fd5b5050506040513d601f19601f82011682018060405250810190611d819190613cd9565b9050919050565b60cb6020528060005260406000206000915090508054611da79061505d565b80601f0160208091040260200160405190810160405280929190818152602001828054611dd39061505d565b8015611e205780601f10611df557610100808354040283529160200191611e20565b820191906000526020600020905b815481529060010190602001808311611e0357829003601f168201915b505050505081565b60c96020528060005260406000206000915090508054611e479061505d565b80601f0160208091040260200160405190810160405280929190818152602001828054611e739061505d565b8015611ec05780601f10611e9557610100808354040283529160200191611ec0565b820191906000526020600020905b815481529060010190602001808311611ea357829003601f168201915b505050505081565b611ed2338261271f565b611edb57600080fd5b6000611f7460d25460d38054611ef09061505d565b80601f0160208091040260200160405190810160405280929190818152602001828054611f1c9061505d565b8015611f695780601f10611f3e57610100808354040283529160200191611f69565b820191906000526020600020905b815481529060010190602001808311611f4c57829003601f168201915b505050505085610e30565b9050818114611fb8576040517f08c379a0000000000000000000000000000000000000000000000000000000008152600401611faf90614d0c565b60405180910390fd5b8060cd60003373ffffffffffffffffffffffffffffffffffffffff1673ffffffffffffffffffffffffffffffffffffffff16815260200190815260200160002081905550505050565b6000609760009054906101000a900473ffffffffffffffffffffffffffffffffffffffff16905090565b600060019054906101000a900460ff166120535760008054906101000a900460ff161561205c565b61205b613195565b5b61209b576040517f08c379a000000000000000000000000000000000000000000000000000000000815260040161209290614b4c565b60405180910390fd5b60008060019054906101000a900460ff1615905080156120eb576001600060016101000a81548160ff02191690831515021790555060016000806101000a81548160ff0219169083151502179055505b8560d2819055508460d39080519060200190612108929190613835565b508360d4908051906020019061211f9291906138bb565b508160d59080519060200190612136929190613835565b508260d6908051906020019061214d929190613835565b5060d860405161215d9190614945565b604051809103902060d9819055506121736131a6565b80156121945760008060016101000a81548160ff0219169083151502179055505b505050505050565b6121da6040518060400160405280600881526020017f70726f6f662069730000000000000000000000000000000000000000000000008152506131ff565b6121e381613298565b4360d160008381526020019081526020016000208190555050565b6060818310612242576040517f08c379a000000000000000000000000000000000000000000000000000000000815260040161223990614c8c565b60405180910390fd5b6020830183850191508383038252509392505050565b606060008451905060008167ffffffffffffffff8111156122a2577f4e487b7100000000000000000000000000000000000000000000000000000000600052604160045260246000fd5b6040519080825280601f01601f1916602001820160405280156122d45781602001600182028036833780820191505090505b509050816020820183602089016004600019fa6122f057600080fd5b6122fb8186866121fe565b925050509392505050565b60d16020528060005260406000206000915090505481565b60008173ffffffffffffffffffffffffffffffffffffffff16612348612343846126f6565b613331565b73ffffffffffffffffffffffffffffffffffffffff16149050919050565b8060ce60003373ffffffffffffffffffffffffffffffffffffffff1673ffffffffffffffffffffffffffffffffffffffff16815260200190815260200160002060008473ffffffffffffffffffffffffffffffffffffffff1673ffffffffffffffffffffffffffffffffffffffff16815260200190815260200160002060006101000a81548160ff0219169083151502179055505050565b60606040518451835181835260208084015280604084015281606084018360208a016004612710fa61242f57600080fd5b85826060018401528082608085010182602088016004612710fa61245257600080fd5b8060208401828460800101856005600019fa61246d57600080fd5b6020818401016040528083528293505050507f25a3e085b73704ee41e80d28afa58b9f6340eb8e9dce4863f02342718956b16d816040516124ae9190614a08565b60405180910390a19392505050565b60d480546124ca9061505d565b80601f01602080910402602001604051908101604052809291908181526020018280546124f69061505d565b80156125435780601f1061251857610100808354040283529160200191612543565b820191906000526020600020905b81548152906001019060200180831161252657829003601f168201915b505050505081565b606060d0805480602002602001604051908101604052809291908181526020016000905b8282101561261b57838290600052602060002001805461258e9061505d565b80601f01602080910402602001604051908101604052809291908181526020018280546125ba9061505d565b80156126075780601f106125dc57610100808354040283529160200191612607565b820191906000526020600020905b8154815290600101906020018083116125ea57829003601f168201915b50505050508152602001906001019061256f565b50505050905090565b60006126c660d25460d380546126399061505d565b80601f01602080910402602001604051908101604052809291908181526020018280546126659061505d565b80156126b25780601f10612687576101008083540402835291602001916126b2565b820191906000526020600020905b81548152906001019060200180831161269557829003601f168201915b5050505050856126c1866128b3565b61333f565b905092915050565b6000815183511480156126ee575081805190602001208380519060200120145b905092915050565b60608160405160200161270991906148d4565b6040516020818303038152906040529050919050565b60008061273361272e856126f6565b611c3f565b90506000612742848318611992565b90506000600282604051612756919061490a565b602060405180830381855afa158015612773573d6000803e3d6000fd5b5050506040513d601f19601f820116820180604052508101906127969190613cd9565b90506127b460d1600083815260200190815260200160002054612df6565b6127bd43612df6565b4360d160008381526020019081526020016000205410612812576040517f08c379a000000000000000000000000000000000000000000000000000000000815260040161280990614c2c565b60405180910390fd5b6128506040518060400160405280600181526020017f5e000000000000000000000000000000000000000000000000000000000000008152506131ff565b600060d1600083815260200190815260200160002054116128a6576040517f08c379a000000000000000000000000000000000000000000000000000000000815260040161289d90614cac565b60405180910390fd5b6001935050505092915050565b6060816040516020016128c6919061495c565b6040516020818303038152906040529050919050565b6128e4612a68565b73ffffffffffffffffffffffffffffffffffffffff16612902612001565b73ffffffffffffffffffffffffffffffffffffffff1614612958576040517f08c379a000000000000000000000000000000000000000000000000000000000815260040161294f90614bac565b60405180910390fd5b600073ffffffffffffffffffffffffffffffffffffffff168173ffffffffffffffffffffffffffffffffffffffff1614156129c8576040517f08c379a00000000000000000000000000000000000000000000000000000000081526004016129bf90614a6c565b60405180910390fd5b6129d1816130cf565b50565b60d580546129e19061505d565b80601f0160208091040260200160405190810160405280929190818152602001828054612a0d9061505d565b8015612a5a5780601f10612a2f57610100808354040283529160200191612a5a565b820191906000526020600020905b815481529060010190602001808311612a3d57829003601f168201915b505050505081565b60d25481565b600033905090565b6000612a9e7f360894a13ba1a3210667c828492db98dca3e2076cc3735a920a3ca505d382bbc60001b6133e9565b60000160009054906101000a900473ffffffffffffffffffffffffffffffffffffffff16905090565b612acf612a68565b73ffffffffffffffffffffffffffffffffffffffff16612aed612001565b73ffffffffffffffffffffffffffffffffffffffff1614612b43576040517f08c379a0000000000000000000000000000000000000000000000000000000008152600401612b3a90614bac565b60405180910390fd5b50565b612b727f4910fdfa16fed3260ed0e7147f7cc6da11a60208b5b9406d12a635614ffd914360001b6133f3565b60000160009054906101000a900460ff1615612b9657612b91836133fd565b612cbe565b8273ffffffffffffffffffffffffffffffffffffffff166352d1902d6040518163ffffffff1660e01b815260040160206040518083038186803b158015612bdc57600080fd5b505afa925050508015612c0d57506040513d601f19601f82011682018060405250810190612c0a9190613cd9565b60015b612c4c576040517f08c379a0000000000000000000000000000000000000000000000000000000008152600401612c4390614b6c565b60405180910390fd5b7f360894a13ba1a3210667c828492db98dca3e2076cc3735a920a3ca505d382bbc60001b8114612cb1576040517f08c379a0000000000000000000000000000000000000000000000000000000008152600401612ca890614b2c565b60405180910390fd5b50612cbd8383836134b6565b5b505050565b6000806002612cd1846128b3565b604051612cde919061490a565b602060405180830381855afa158015612cfb573d6000803e3d6000fd5b5050506040513d601f19601f82011682018060405250810190612d1e9190613cd9565b9050612d2a8484612624565b612d69576040517f08c379a0000000000000000000000000000000000000000000000000000000008152600401612d6090614cec565b60405180910390fd5b612d73858261271f565b612db2576040517f08c379a0000000000000000000000000000000000000000000000000000000008152600401612da990614a8c565b60405180910390fd5b7f20c0d0d8bdc7432afb624a48f4dd802ef2731896806e578631da7a92d8324ca46001604051612de291906149d2565b60405180910390a160019150509392505050565b612e8c81604051602401612e0a9190614d2c565b6040516020818303038152906040527ff5b1bba9000000000000000000000000000000000000000000000000000000007bffffffffffffffffffffffffffffffffffffffffffffffffffffffff19166020820180517bffffffffffffffffffffffffffffffffffffffffffffffffffffffff83818316178352505050506134e2565b50565b6060600082511415612f1657600067ffffffffffffffff811115612edc577f4e487b7100000000000000000000000000000000000000000000000000000000600052604160045260246000fd5b6040519080825280601f01601f191660200182016040528015612f0e5781602001600182028036833780820191505090505b5090506130ca565b600060048351612f2691906150ee565b14612f66576040517f08c379a0000000000000000000000000000000000000000000000000000000008152600401612f5d90614bec565b60405180910390fd5b60006040518060a00160405280608081526020016159706080913990506000600360048551612f959190614f0a565b612f9f9190614f3b565b90506000602082612fb09190614eb4565b67ffffffffffffffff811115612fef577f4e487b7100000000000000000000000000000000000000000000000000000000600052604160045260246000fd5b6040519080825280601f01601f1916602001820160405280156130215781602001600182028036833780820191505090505b5090508451850151603d60ff8216141561305157600183039250613d3d61ffff82161415613050576001830392505b5b828252600184018687518101602085015b818310156130be57600483019250825160ff8082168601511660ff808360081c168701511660061b0160ff808360101c1687015116600c1b60ff808460181c168801511660121b01018060e81b83526003830192505050613062565b50505050508093505050505b919050565b6000609760009054906101000a900473ffffffffffffffffffffffffffffffffffffffff16905081609760006101000a81548173ffffffffffffffffffffffffffffffffffffffff021916908373ffffffffffffffffffffffffffffffffffffffff1602179055508173ffffffffffffffffffffffffffffffffffffffff168173ffffffffffffffffffffffffffffffffffffffff167f8be0079c531659141344cd1fd0a4f28419497f9722a3daafe3b4186f6b6457e060405160405180910390a35050565b60006131a03061350b565b15905090565b600060019054906101000a900460ff166131f5576040517f08c379a00000000000000000000000000000000000000000000000000000000081526004016131ec90614c6c565b60405180910390fd5b6131fd61352e565b565b613295816040516024016132139190614a2a565b6040516020818303038152906040527f41304fac000000000000000000000000000000000000000000000000000000007bffffffffffffffffffffffffffffffffffffffffffffffffffffffff19166020820180517bffffffffffffffffffffffffffffffffffffffffffffffffffffffff83818316178352505050506134e2565b50565b61332e816040516024016132ac91906149ed565b6040516020818303038152906040527f27b7cf85000000000000000000000000000000000000000000000000000000007bffffffffffffffffffffffffffffffffffffffffffffffffffffffff19166020820180517bffffffffffffffffffffffffffffffffffffffffffffffffffffffff83818316178352505050506134e2565b50565b600060148201519050919050565b60008061334d868686610e30565b90506000600284604051613361919061490a565b602060405180830381855afa15801561337e573d6000803e3d6000fd5b5050506040513d601f19601f820116820180604052508101906133a19190613cd9565b821490507f5e9f65e089b6ffea1b6c1193947947efb753a2f441a3d812830523c84f0dbd64816040516133d491906149d2565b60405180910390a18092505050949350505050565b6000819050919050565b6000819050919050565b6134068161350b565b613445576040517f08c379a000000000000000000000000000000000000000000000000000000000815260040161343c90614b8c565b60405180910390fd5b806134727f360894a13ba1a3210667c828492db98dca3e2076cc3735a920a3ca505d382bbc60001b6133e9565b60000160006101000a81548173ffffffffffffffffffffffffffffffffffffffff021916908373ffffffffffffffffffffffffffffffffffffffff16021790555050565b6134bf8361358f565b6000825111806134cc5750805b156134dd576134db83836135de565b505b505050565b60008151905060006a636f6e736f6c652e6c6f679050602083016000808483855afa5050505050565b6000808273ffffffffffffffffffffffffffffffffffffffff163b119050919050565b600060019054906101000a900460ff1661357d576040517f08c379a000000000000000000000000000000000000000000000000000000000815260040161357490614c6c565b60405180910390fd5b61358d613588612a68565b6130cf565b565b613598816133fd565b8073ffffffffffffffffffffffffffffffffffffffff167fbc7cd75a20ee27fd9adebab32041f755214dbc6bffa90cc0225b39da2e5c2d3b60405160405180910390a250565b60606135e98361350b565b613628576040517f08c379a000000000000000000000000000000000000000000000000000000000815260040161361f90614c0c565b60405180910390fd5b6000808473ffffffffffffffffffffffffffffffffffffffff1684604051613650919061490a565b600060405180830381855af49150503d806000811461368b576040519150601f19603f3d011682016040523d82523d6000602084013e613690565b606091505b50915091506136b88282604051806060016040528060278152602001615949602791396136c2565b9250505092915050565b606083156136d257829050613722565b6000835111156136e55782518084602001fd5b816040517f08c379a00000000000000000000000000000000000000000000000000000000081526004016137199190614a2a565b60405180910390fd5b9392505050565b8280546137359061505d565b90600052602060002090601f016020900481019282613757576000855561379e565b82601f1061377057803560ff191683800117855561379e565b8280016001018555821561379e579182015b8281111561379d578235825591602001919060010190613782565b5b5090506137ab9190613941565b5090565b8280546137bb9061505d565b90600052602060002090601f0160209004810192826137dd5760008555613824565b82601f106137f657803560ff1916838001178555613824565b82800160010185558215613824579182015b82811115613823578235825591602001919060010190613808565b5b5090506138319190613941565b5090565b8280546138419061505d565b90600052602060002090601f01602090048101928261386357600085556138aa565b82601f1061387c57805160ff19168380011785556138aa565b828001600101855582156138aa579182015b828111156138a957825182559160200191906001019061388e565b5b5090506138b79190613941565b5090565b8280546138c79061505d565b90600052602060002090601f0160209004810192826138e95760008555613930565b82601f1061390257805160ff1916838001178555613930565b82800160010185558215613930579182015b8281111561392f578251825591602001919060010190613914565b5b50905061393d9190613941565b5090565b5b8082111561395a576000816000905550600101613942565b5090565b600061397161396c84614d6c565b614d47565b90508281526020810184848401111561398957600080fd5b61399484828561501b565b509392505050565b60006139af6139aa84614d9d565b614d47565b9050828152602081018484840111156139c757600080fd5b6139d284828561501b565b509392505050565b6000813590506139e9816158ec565b92915050565b6000813590506139fe81615903565b92915050565b600081359050613a138161591a565b92915050565b600081519050613a288161591a565b92915050565b60008083601f840112613a4057600080fd5b8235905067ffffffffffffffff811115613a5957600080fd5b602083019150836001820283011115613a7157600080fd5b9250929050565b600082601f830112613a8957600080fd5b8135613a9984826020860161395e565b91505092915050565b60008083601f840112613ab457600080fd5b8235905067ffffffffffffffff811115613acd57600080fd5b602083019150836001820283011115613ae557600080fd5b9250929050565b600082601f830112613afd57600080fd5b8135613b0d84826020860161399c565b91505092915050565b600081359050613b2581615931565b92915050565b600060208284031215613b3d57600080fd5b6000613b4b848285016139da565b91505092915050565b60008060408385031215613b6757600080fd5b6000613b75858286016139da565b9250506020613b86858286016139da565b9150509250929050565b60008060408385031215613ba357600080fd5b6000613bb1858286016139da565b9250506020613bc2858286016139ef565b9150509250929050565b60008060408385031215613bdf57600080fd5b6000613bed858286016139da565b9250506020613bfe85828601613a04565b9150509250929050565b60008060408385031215613c1b57600080fd5b6000613c29858286016139da565b925050602083013567ffffffffffffffff811115613c4657600080fd5b613c5285828601613a78565b9150509250929050565b60008060408385031215613c6f57600080fd5b6000613c7d858286016139da565b925050602083013567ffffffffffffffff811115613c9a57600080fd5b613ca685828601613aec565b9150509250929050565b600060208284031215613cc257600080fd5b6000613cd084828501613a04565b91505092915050565b600060208284031215613ceb57600080fd5b6000613cf984828501613a19565b91505092915050565b600060208284031215613d1457600080fd5b600082013567ffffffffffffffff811115613d2e57600080fd5b613d3a84828501613a78565b91505092915050565b60008060408385031215613d5657600080fd5b600083013567ffffffffffffffff811115613d7057600080fd5b613d7c85828601613a78565b9250506020613d8d85828601613a04565b9150509250929050565b60008060408385031215613daa57600080fd5b600083013567ffffffffffffffff811115613dc457600080fd5b613dd085828601613a78565b925050602083013567ffffffffffffffff811115613ded57600080fd5b613df985828601613a78565b9150509250929050565b60008060408385031215613e1657600080fd5b600083013567ffffffffffffffff811115613e3057600080fd5b613e3c85828601613a78565b925050602083013567ffffffffffffffff811115613e5957600080fd5b613e6585828601613aec565b9150509250929050565b60008060008060008060c08789031215613e8857600080fd5b600087013567ffffffffffffffff811115613ea257600080fd5b613eae89828a01613a78565b965050602087013567ffffffffffffffff811115613ecb57600080fd5b613ed789828a01613aec565b9550506040613ee889828a01613b16565b9450506060613ef989828a01613b16565b9350506080613f0a89828a01613b16565b92505060a087013567ffffffffffffffff811115613f2757600080fd5b613f3389828a01613a78565b9150509295509295509295565b600080600060608486031215613f5557600080fd5b600084013567ffffffffffffffff811115613f6f57600080fd5b613f7b86828701613a78565b9350506020613f8c86828701613b16565b925050604084013567ffffffffffffffff811115613fa957600080fd5b613fb586828701613a78565b9150509250925092565b600080600060608486031215613fd457600080fd5b600084013567ffffffffffffffff811115613fee57600080fd5b613ffa86828701613a78565b935050602061400b86828701613b16565b925050604061401c86828701613b16565b9150509250925092565b60006020828403121561403857600080fd5b600082013567ffffffffffffffff81111561405257600080fd5b61405e84828501613aec565b91505092915050565b60006020828403121561407957600080fd5b600061408784828501613b16565b91505092915050565b6000806000806000606086880312156140a857600080fd5b60006140b688828901613b16565b955050602086013567ffffffffffffffff8111156140d357600080fd5b6140df88828901613a2e565b9450945050604086013567ffffffffffffffff8111156140fe57600080fd5b61410a88828901613aa2565b92509250509295509295909350565b60008060006060848603121561412e57600080fd5b600061413c86828701613b16565b935050602084013567ffffffffffffffff81111561415957600080fd5b61416586828701613a78565b925050604084013567ffffffffffffffff81111561418257600080fd5b61418e86828701613a78565b9150509250925092565b600080600080600060a086880312156141b057600080fd5b60006141be88828901613b16565b955050602086013567ffffffffffffffff8111156141db57600080fd5b6141e788828901613a78565b945050604086013567ffffffffffffffff81111561420457600080fd5b61421088828901613aec565b935050606086013567ffffffffffffffff81111561422d57600080fd5b61423988828901613a78565b925050608086013567ffffffffffffffff81111561425657600080fd5b61426288828901613a78565b9150509295509295909350565b6000806040838503121561428257600080fd5b600061429085828601613b16565b92505060206142a185828601613b16565b9150509250929050565b60006142b783836142d7565b60208301905092915050565b60006142cf8383614414565b905092915050565b6142e081614fc9565b82525050565b6142ef81614fc9565b82525050565b61430661430182614fc9565b6150c0565b82525050565b600061431782614e03565b6143218185614e49565b935061432c83614dce565b8060005b8381101561435d57815161434488826142ab565b975061434f83614e2f565b925050600181019050614330565b5085935050505092915050565b600061437582614e0e565b61437f8185614e5a565b93508360208202850161439185614dde565b8060005b858110156143cd57848403895281516143ae85826142c3565b94506143b983614e3c565b925060208a01995050600181019050614395565b50829750879550505050505092915050565b6143e881614fdb565b82525050565b6143f781614fe7565b82525050565b61440e61440982614fe7565b6150d2565b82525050565b600061441f82614e19565b6144298185614e6b565b935061443981856020860161502a565b614442816151db565b840191505092915050565b600061445882614e19565b6144628185614e7c565b935061447281856020860161502a565b61447b816151db565b840191505092915050565b600061449182614e19565b61449b8185614e8d565b93506144ab81856020860161502a565b80840191505092915050565b600081546144c48161505d565b6144ce8186614e8d565b945060018216600081146144e957600181146144fa5761452d565b60ff1983168652818601935061452d565b61450385614dee565b60005b8381101561452557815481890152600182019150602081019050614506565b838801955050505b50505092915050565b600061454182614e24565b61454b8185614e98565b935061455b81856020860161502a565b614564816151db565b840191505092915050565b600061457a82614e24565b6145848185614ea9565b935061459481856020860161502a565b80840191505092915050565b60006145ad602283614e98565b91506145b8826151f9565b604082019050919050565b60006145d0602683614e98565b91506145db82615248565b604082019050919050565b60006145f3602e83614e98565b91506145fe82615297565b604082019050919050565b6000614616602c83614e98565b9150614621826152e6565b604082019050919050565b6000614639602c83614e98565b915061464482615335565b604082019050919050565b600061465c603883614e98565b915061466782615384565b604082019050919050565b600061467f601783614e98565b915061468a826153d3565b602082019050919050565b60006146a2602983614e98565b91506146ad826153fc565b604082019050919050565b60006146c5602e83614e98565b91506146d08261544b565b604082019050919050565b60006146e8602e83614e98565b91506146f38261549a565b604082019050919050565b600061470b602d83614e98565b9150614716826154e9565b604082019050919050565b600061472e602083614e98565b915061473982615538565b602082019050919050565b6000614751602c83614e98565b915061475c82615561565b604082019050919050565b6000614774601c83614e98565b915061477f826155b0565b602082019050919050565b6000614797602683614e98565b91506147a2826155d9565b604082019050919050565b60006147ba605583614e98565b91506147c582615628565b606082019050919050565b60006147dd602383614e98565b91506147e88261569d565b604082019050919050565b6000614800602b83614e98565b915061480b826156ec565b604082019050919050565b6000614823602783614e98565b915061482e8261573b565b604082019050919050565b6000614846605683614e98565b91506148518261578a565b606082019050919050565b6000614869602f83614e98565b9150614874826157ff565b604082019050919050565b600061488c601a83614e98565b91506148978261584e565b602082019050919050565b60006148af604483614e98565b91506148ba82615877565b606082019050919050565b6148ce81615011565b82525050565b60006148e082846142f5565b60148201915081905092915050565b60006148fb82846143fd565b60208201915081905092915050565b60006149168284614486565b915081905092915050565b600061492d8285614486565b91506149398284614486565b91508190509392505050565b600061495182846144b7565b915081905092915050565b6000614968828461456f565b915081905092915050565b600060208201905061498860008301846142e6565b92915050565b600060208201905081810360008301526149a8818461430c565b905092915050565b600060208201905081810360008301526149ca818461436a565b905092915050565b60006020820190506149e760008301846143df565b92915050565b6000602082019050614a0260008301846143ee565b92915050565b60006020820190508181036000830152614a22818461444d565b905092915050565b60006020820190508181036000830152614a448184614536565b905092915050565b60006020820190508181036000830152614a65816145a0565b9050919050565b60006020820190508181036000830152614a85816145c3565b9050919050565b60006020820190508181036000830152614aa5816145e6565b9050919050565b60006020820190508181036000830152614ac581614609565b9050919050565b60006020820190508181036000830152614ae58161462c565b9050919050565b60006020820190508181036000830152614b058161464f565b9050919050565b60006020820190508181036000830152614b2581614672565b9050919050565b60006020820190508181036000830152614b4581614695565b9050919050565b60006020820190508181036000830152614b65816146b8565b9050919050565b60006020820190508181036000830152614b85816146db565b9050919050565b60006020820190508181036000830152614ba5816146fe565b9050919050565b60006020820190508181036000830152614bc581614721565b9050919050565b60006020820190508181036000830152614be581614744565b9050919050565b60006020820190508181036000830152614c0581614767565b9050919050565b60006020820190508181036000830152614c258161478a565b9050919050565b60006020820190508181036000830152614c45816147ad565b9050919050565b60006020820190508181036000830152614c65816147d0565b9050919050565b60006020820190508181036000830152614c85816147f3565b9050919050565b60006020820190508181036000830152614ca581614816565b9050919050565b60006020820190508181036000830152614cc581614839565b9050919050565b60006020820190508181036000830152614ce58161485c565b9050919050565b60006020820190508181036000830152614d058161487f565b9050919050565b60006020820190508181036000830152614d25816148a2565b9050919050565b6000602082019050614d4160008301846148c5565b92915050565b6000614d51614d62565b9050614d5d828261508f565b919050565b6000604051905090565b600067ffffffffffffffff821115614d8757614d866151ac565b5b614d90826151db565b9050602081019050919050565b600067ffffffffffffffff821115614db857614db76151ac565b5b614dc1826151db565b9050602081019050919050565b6000819050602082019050919050565b6000819050602082019050919050565b60008190508160005260206000209050919050565b600081519050919050565b600081519050919050565b600081519050919050565b600081519050919050565b6000602082019050919050565b6000602082019050919050565b600082825260208201905092915050565b600082825260208201905092915050565b600082825260208201905092915050565b600082825260208201905092915050565b600081905092915050565b600082825260208201905092915050565b600081905092915050565b6000614ebf82615011565b9150614eca83615011565b9250827fffffffffffffffffffffffffffffffffffffffffffffffffffffffffffffffff03821115614eff57614efe61511f565b5b828201905092915050565b6000614f1582615011565b9150614f2083615011565b925082614f3057614f2f61514e565b5b828204905092915050565b6000614f4682615011565b9150614f5183615011565b9250817fffffffffffffffffffffffffffffffffffffffffffffffffffffffffffffffff0483118215151615614f8a57614f8961511f565b5b828202905092915050565b6000614fa082615011565b9150614fab83615011565b925082821015614fbe57614fbd61511f565b5b828203905092915050565b6000614fd482614ff1565b9050919050565b60008115159050919050565b6000819050919050565b600073ffffffffffffffffffffffffffffffffffffffff82169050919050565b6000819050919050565b82818337600083830152505050565b60005b8381101561504857808201518184015260208101905061502d565b83811115615057576000848401525b50505050565b6000600282049050600182168061507557607f821691505b602082108114156150895761508861517d565b5b50919050565b615098826151db565b810181811067ffffffffffffffff821117156150b7576150b66151ac565b5b80604052505050565b60006150cb826150dc565b9050919050565b6000819050919050565b60006150e7826151ec565b9050919050565b60006150f982615011565b915061510483615011565b9250826151145761511361514e565b5b828206905092915050565b7f4e487b7100000000000000000000000000000000000000000000000000000000600052601160045260246000fd5b7f4e487b7100000000000000000000000000000000000000000000000000000000600052601260045260246000fd5b7f4e487b7100000000000000000000000000000000000000000000000000000000600052602260045260246000fd5b7f4e487b7100000000000000000000000000000000000000000000000000000000600052604160045260246000fd5b6000601f19601f8301169050919050565b60008160601b9050919050565b7f4a57542063616e206f6e6c792062652075736564206f6e2d636861696e206f6e60008201527f6365000000000000000000000000000000000000000000000000000000000000602082015250565b7f4f776e61626c653a206e6577206f776e657220697320746865207a65726f206160008201527f6464726573730000000000000000000000000000000000000000000000000000602082015250565b7f50726f6f66206f662070726576696f7573206b6e6f776c656765206f66204a5760008201527f5420756e7375636365737366756c000000000000000000000000000000000000602082015250565b7f46756e6374696f6e206d7573742062652063616c6c6564207468726f7567682060008201527f64656c656761746563616c6c0000000000000000000000000000000000000000602082015250565b7f46756e6374696f6e206d7573742062652063616c6c6564207468726f7567682060008201527f6163746976652070726f78790000000000000000000000000000000000000000602082015250565b7f555550535570677261646561626c653a206d757374206e6f742062652063616c60008201527f6c6564207468726f7567682064656c656761746563616c6c0000000000000000602082015250565b7f4a575420566572696669636174696f6e206661696c6564000000000000000000600082015250565b7f45524331393637557067726164653a20756e737570706f727465642070726f7860008201527f6961626c65555549440000000000000000000000000000000000000000000000602082015250565b7f496e697469616c697a61626c653a20636f6e747261637420697320616c72656160008201527f647920696e697469616c697a6564000000000000000000000000000000000000602082015250565b7f45524331393637557067726164653a206e657720696d706c656d656e7461746960008201527f6f6e206973206e6f742055555053000000000000000000000000000000000000602082015250565b7f455243313936373a206e657720696d706c656d656e746174696f6e206973206e60008201527f6f74206120636f6e747261637400000000000000000000000000000000000000602082015250565b7f4f776e61626c653a2063616c6c6572206973206e6f7420746865206f776e6572600082015250565b7f4661696c656420746f2066696e6420636f727265637420746f7020627265616460008201527f20696e2073616e64776963680000000000000000000000000000000000000000602082015250565b7f696e76616c696420626173653634206465636f64657220696e70757400000000600082015250565b7f416464726573733a2064656c65676174652063616c6c20746f206e6f6e2d636f60008201527f6e74726163740000000000000000000000000000000000000000000000000000602082015250565b7f596f75206e65656420746f2070726f7665206b6e6f776c65646765206f66204a60008201527f575420696e20612070726576696f757320626c6f636b2c206f7468657277697360208201527f6520796f752063616e2062652066726f6e7472756e0000000000000000000000604082015250565b7f70726f706f736564494453616e6477696368206e6f7420666f756e6420696e2060008201527f4a57540000000000000000000000000000000000000000000000000000000000602082015250565b7f496e697469616c697a61626c653a20636f6e7472616374206973206e6f74206960008201527f6e697469616c697a696e67000000000000000000000000000000000000000000602082015250565b7f696e646578207374617274206d757374206265206c657373207468616e20696e60008201527f64656420656e6400000000000000000000000000000000000000000000000000602082015250565b7f50726f6f66206e6f7420666f756e643b206974206e6565647320746f2068617660008201527f65206265656e207375626d697474656420746f20636f6d6d69744a575450726f60208201527f6f6620696e20612070726576696f757320626c6f636b00000000000000000000604082015250565b7f4661696c656420746f2066696e6420636f727265637420626f74746f6d20627260008201527f65616420696e2073616e64776963680000000000000000000000000000000000602082015250565b7f566572696669636174696f6e206f66204a5754206661696c6564000000000000600082015250565b7f686561646572416e645061796c6f61644861736820646f6573206e6f74206d6160008201527f74636820746865206861736820796f752070726f766564206b6e6f776c65646760208201527f65206f6600000000000000000000000000000000000000000000000000000000604082015250565b6158f581614fc9565b811461590057600080fd5b50565b61590c81614fdb565b811461591757600080fd5b50565b61592381614fe7565b811461592e57600080fd5b50565b61593a81615011565b811461594557600080fd5b5056fe416464726573733a206c6f772d6c6576656c2064656c65676174652063616c6c206661696c6564000000000000000000000000000000000000000000000000000000000000000000000000000000000000003e0000003f3435363738393a3b3c3d00000000000000000102030405060708090a0b0c0d0e0f101112131415161718190000000000001a1b1c1d1e1f202122232425262728292a2b2c2d2e2f303132330000000000a2646970667358221220626599c0b3570f889f5330c1e9144e7dfa023ec516515fc5858184243aae5f7564736f6c63430008040033",
  "linkReferences": {},
  "deployedLinkReferences": {}
}