{
  "_format": "hh-sol-artifact-1",
  "contractName": "WTFBios",
  "sourceName": "contracts/WTFBios.sol",
  "abi": [
    {
      "anonymous": false,
      "inputs": [
        {
          "indexed": false,
          "internalType": "address",
          "name": "userAddress",
          "type": "address"
        }
      ],
      "name": "RemoveUserNameAndBio",
      "type": "event"
    },
    {
      "anonymous": false,
      "inputs": [
        {
          "indexed": false,
          "internalType": "address",
          "name": "userAddress",
          "type": "address"
        }
      ],
      "name": "SetUserNameAndBio",
      "type": "event"
    },
    {
      "inputs": [
        {
          "internalType": "address",
          "name": "",
          "type": "address"
        }
      ],
      "name": "bioForAddress",
      "outputs": [
        {
          "internalType": "string",
          "name": "",
          "type": "string"
        }
      ],
      "stateMutability": "view",
      "type": "function"
    },
    {
      "inputs": [],
      "name": "getRegisteredAddresses",
      "outputs": [
        {
          "internalType": "address[]",
          "name": "",
          "type": "address[]"
        }
      ],
      "stateMutability": "view",
      "type": "function"
    },
    {
      "inputs": [
        {
          "internalType": "address",
          "name": "",
          "type": "address"
        }
      ],
      "name": "nameForAddress",
      "outputs": [
        {
          "internalType": "string",
          "name": "",
          "type": "string"
        }
      ],
      "stateMutability": "view",
      "type": "function"
    },
    {
      "inputs": [],
      "name": "removeNameAndBio",
      "outputs": [],
      "stateMutability": "nonpayable",
      "type": "function"
    },
    {
      "inputs": [
        {
          "internalType": "string",
          "name": "name",
          "type": "string"
        },
        {
          "internalType": "string",
          "name": "bio",
          "type": "string"
        }
      ],
      "name": "setNameAndBio",
      "outputs": [],
      "stateMutability": "nonpayable",
      "type": "function"
    }
  ],
  "bytecode": "0x608060405234801561001057600080fd5b50610db1806100206000396000f3fe608060405234801561001057600080fd5b50600436106100575760003560e01c8063016f6bcc1461005c578063227ef061146100785780632320f00c1461009657806362e1fb73146100c6578063a28b53e8146100f6575b600080fd5b61007660048036038101906100719190610983565b610100565b005b6100806102d2565b60405161008d9190610b03565b60405180910390f35b6100b060048036038101906100ab919061095a565b610360565b6040516100bd9190610b25565b60405180910390f35b6100e060048036038101906100db919061095a565b610400565b6040516100ed9190610b25565b60405180910390f35b6100fe6104a0565b005b8383600160003373ffffffffffffffffffffffffffffffffffffffff1673ffffffffffffffffffffffffffffffffffffffff168152602001908152602001600020919061014e9291906107d2565b5081816000803373ffffffffffffffffffffffffffffffffffffffff1673ffffffffffffffffffffffffffffffffffffffff168152602001908152602001600020919061019c9291906107d2565b50600073ffffffffffffffffffffffffffffffffffffffff16600360003373ffffffffffffffffffffffffffffffffffffffff1673ffffffffffffffffffffffffffffffffffffffff16815260200190815260200160002060009054906101000a900473ffffffffffffffffffffffffffffffffffffffff1673ffffffffffffffffffffffffffffffffffffffff161415610295576002339080600181540180825580915050600190039060005260206000200160009091909190916101000a81548173ffffffffffffffffffffffffffffffffffffffff021916908373ffffffffffffffffffffffffffffffffffffffff1602179055505b7fc477170f27258560315d7b2a8b2080d4d35f6505d053f1b7bcb60cd29b8d57d0336040516102c49190610ae8565b60405180910390a150505050565b6060600280548060200260200160405190810160405280929190818152602001828054801561035657602002820191906000526020600020905b8160009054906101000a900473ffffffffffffffffffffffffffffffffffffffff1673ffffffffffffffffffffffffffffffffffffffff168152602001906001019080831161030c575b5050505050905090565b6001602052806000526040600020600091509050805461037f90610c2b565b80601f01602080910402602001604051908101604052809291908181526020018280546103ab90610c2b565b80156103f85780601f106103cd576101008083540402835291602001916103f8565b820191906000526020600020905b8154815290600101906020018083116103db57829003601f168201915b505050505081565b6000602052806000526040600020600091509050805461041f90610c2b565b80601f016020809104026020016040519081016040528092919081815260200182805461044b90610c2b565b80156104985780601f1061046d57610100808354040283529160200191610498565b820191906000526020600020905b81548152906001019060200180831161047b57829003601f168201915b505050505081565b60008060003373ffffffffffffffffffffffffffffffffffffffff1673ffffffffffffffffffffffffffffffffffffffff16815260200190815260200160002080546104eb90610c2b565b90501161052d576040517f08c379a000000000000000000000000000000000000000000000000000000000815260040161052490610b47565b60405180910390fd5b60005b600280549050811015610798573373ffffffffffffffffffffffffffffffffffffffff166002828154811061058e577f4e487b7100000000000000000000000000000000000000000000000000000000600052603260045260246000fd5b9060005260206000200160009054906101000a900473ffffffffffffffffffffffffffffffffffffffff1673ffffffffffffffffffffffffffffffffffffffff161415610785576002818154811061060f577f4e487b7100000000000000000000000000000000000000000000000000000000600052603260045260246000fd5b9060005260206000200160006101000a81549073ffffffffffffffffffffffffffffffffffffffff021916905560405180602001604052806000815250600160003373ffffffffffffffffffffffffffffffffffffffff1673ffffffffffffffffffffffffffffffffffffffff168152602001908152602001600020908051906020019061069e929190610858565b50604051806020016040528060008152506000803373ffffffffffffffffffffffffffffffffffffffff1673ffffffffffffffffffffffffffffffffffffffff1681526020019081526020016000209080519060200190610700929190610858565b506000600360003373ffffffffffffffffffffffffffffffffffffffff1673ffffffffffffffffffffffffffffffffffffffff16815260200190815260200160002060006101000a81548173ffffffffffffffffffffffffffffffffffffffff021916908373ffffffffffffffffffffffffffffffffffffffff160217905550610798565b808061079090610c5d565b915050610530565b507fa8fd4e63eda630c9b2c4d4fef717fa0f8382d727b817a59b86aa6c5aad2f7cbc336040516107c89190610ae8565b60405180910390a1565b8280546107de90610c2b565b90600052602060002090601f0160209004810192826108005760008555610847565b82601f1061081957803560ff1916838001178555610847565b82800160010185558215610847579182015b8281111561084657823582559160200191906001019061082b565b5b50905061085491906108de565b5090565b82805461086490610c2b565b90600052602060002090601f01602090048101928261088657600085556108cd565b82601f1061089f57805160ff19168380011785556108cd565b828001600101855582156108cd579182015b828111156108cc5782518255916020019190600101906108b1565b5b5090506108da91906108de565b5090565b5b808211156108f75760008160009055506001016108df565b5090565b60008135905061090a81610d64565b92915050565b60008083601f84011261092257600080fd5b8235905067ffffffffffffffff81111561093b57600080fd5b60208301915083600182028301111561095357600080fd5b9250929050565b60006020828403121561096c57600080fd5b600061097a848285016108fb565b91505092915050565b6000806000806040858703121561099957600080fd5b600085013567ffffffffffffffff8111156109b357600080fd5b6109bf87828801610910565b9450945050602085013567ffffffffffffffff8111156109de57600080fd5b6109ea87828801610910565b925092505092959194509250565b6000610a048383610a10565b60208301905092915050565b610a1981610bbc565b82525050565b610a2881610bbc565b82525050565b6000610a3982610b77565b610a438185610b9a565b9350610a4e83610b67565b8060005b83811015610a7f578151610a6688826109f8565b9750610a7183610b8d565b925050600181019050610a52565b5085935050505092915050565b6000610a9782610b82565b610aa18185610bab565b9350610ab1818560208601610bf8565b610aba81610d04565b840191505092915050565b6000610ad2603383610bab565b9150610add82610d15565b604082019050919050565b6000602082019050610afd6000830184610a1f565b92915050565b60006020820190508181036000830152610b1d8184610a2e565b905092915050565b60006020820190508181036000830152610b3f8184610a8c565b905092915050565b60006020820190508181036000830152610b6081610ac5565b9050919050565b6000819050602082019050919050565b600081519050919050565b600081519050919050565b6000602082019050919050565b600082825260208201905092915050565b600082825260208201905092915050565b6000610bc782610bce565b9050919050565b600073ffffffffffffffffffffffffffffffffffffffff82169050919050565b6000819050919050565b60005b83811015610c16578082015181840152602081019050610bfb565b83811115610c25576000848401525b50505050565b60006002820490506001821680610c4357607f821691505b60208210811415610c5757610c56610cd5565b5b50919050565b6000610c6882610bee565b91507fffffffffffffffffffffffffffffffffffffffffffffffffffffffffffffffff821415610c9b57610c9a610ca6565b5b600182019050919050565b7f4e487b7100000000000000000000000000000000000000000000000000000000600052601160045260246000fd5b7f4e487b7100000000000000000000000000000000000000000000000000000000600052602260045260246000fd5b6000601f19601f8301169050919050565b7f54686973206164647265737320646f6573206e6f7420686176652061206e616d60008201527f6520616e642062696f20746f2072656d6f766500000000000000000000000000602082015250565b610d6d81610bbc565b8114610d7857600080fd5b5056fea2646970667358221220a71b52166e4238368315da40194f7a22e6ad7330cbb435b94301853fd4581a7f64736f6c63430008040033",
  "linkReferences": {},
  "deployedLinkReferences": {}
}