{
  "_format": "hh-sol-artifact-1",
  "contractName": "WTFBios",
  "sourceName": "contracts/WTFBios.sol",
  "abi": [
    {
      "anonymous": false,
      "inputs": [
        {
          "indexed": false,
          "internalType": "address",
          "name": "userAddress",
          "type": "address"
        }
      ],
      "name": "AddUserNameAndBio",
      "type": "event"
    },
    {
      "anonymous": false,
      "inputs": [
        {
          "indexed": false,
          "internalType": "address",
          "name": "userAddress",
          "type": "address"
        }
      ],
      "name": "ModifyUserNameAndBio",
      "type": "event"
    },
    {
      "anonymous": false,
      "inputs": [
        {
          "indexed": false,
          "internalType": "address",
          "name": "userAddress",
          "type": "address"
        }
      ],
      "name": "RemoveUserNameAndBio",
      "type": "event"
    },
    {
      "inputs": [
        {
          "internalType": "string",
          "name": "name",
          "type": "string"
        },
        {
          "internalType": "string",
          "name": "bio",
          "type": "string"
        }
      ],
      "name": "addNameAndBio",
      "outputs": [],
      "stateMutability": "nonpayable",
      "type": "function"
    },
    {
      "inputs": [
        {
          "internalType": "address",
          "name": "",
          "type": "address"
        }
      ],
      "name": "bioForAddress",
      "outputs": [
        {
          "internalType": "string",
          "name": "",
          "type": "string"
        }
      ],
      "stateMutability": "view",
      "type": "function"
    },
    {
      "inputs": [],
      "name": "getRegisteredAddresses",
      "outputs": [
        {
          "internalType": "address[]",
          "name": "",
          "type": "address[]"
        }
      ],
      "stateMutability": "view",
      "type": "function"
    },
    {
      "inputs": [
        {
          "internalType": "string",
          "name": "name",
          "type": "string"
        },
        {
          "internalType": "string",
          "name": "newBio",
          "type": "string"
        }
      ],
      "name": "modifyNameAndBio",
      "outputs": [],
      "stateMutability": "nonpayable",
      "type": "function"
    },
    {
      "inputs": [
        {
          "internalType": "address",
          "name": "",
          "type": "address"
        }
      ],
      "name": "nameForAddress",
      "outputs": [
        {
          "internalType": "string",
          "name": "",
          "type": "string"
        }
      ],
      "stateMutability": "view",
      "type": "function"
    },
    {
      "inputs": [],
      "name": "removeNameAndBio",
      "outputs": [],
      "stateMutability": "nonpayable",
      "type": "function"
    }
  ],
  "bytecode": "0x608060405234801561001057600080fd5b50611028806100206000396000f3fe608060405234801561001057600080fd5b50600436106100625760003560e01c8063227ef061146100675780632320f00c1461008557806362e1fb73146100b557806396cd2e47146100e5578063a28b53e814610101578063f21e5ced1461010b575b600080fd5b61006f610127565b60405161007c9190610c50565b60405180910390f35b61009f600480360381019061009a9190610a61565b6101b5565b6040516100ac9190610c72565b60405180910390f35b6100cf60048036038101906100ca9190610a61565b610255565b6040516100dc9190610c72565b60405180910390f35b6100ff60048036038101906100fa9190610a8a565b6102f5565b005b61010961045c565b005b61012560048036038101906101209190610a8a565b61070f565b005b606060028054806020026020016040519081016040528092919081815260200182805480156101ab57602002820191906000526020600020905b8160009054906101000a900473ffffffffffffffffffffffffffffffffffffffff1673ffffffffffffffffffffffffffffffffffffffff1681526020019060010190808311610161575b5050505050905090565b600160205280600052604060002060009150905080546101d490610db8565b80601f016020809104026020016040519081016040528092919081815260200182805461020090610db8565b801561024d5780601f106102225761010080835404028352916020019161024d565b820191906000526020600020905b81548152906001019060200180831161023057829003601f168201915b505050505081565b6000602052806000526040600020600091509050805461027490610db8565b80601f01602080910402602001604051908101604052809291908181526020018280546102a090610db8565b80156102ed5780601f106102c2576101008083540402835291602001916102ed565b820191906000526020600020905b8154815290600101906020018083116102d057829003601f168201915b505050505081565b60008060003373ffffffffffffffffffffffffffffffffffffffff1673ffffffffffffffffffffffffffffffffffffffff168152602001908152602001600020805461034090610db8565b905011610382576040517f08c379a000000000000000000000000000000000000000000000000000000000815260040161037990610cb4565b60405180910390fd5b8383600160003373ffffffffffffffffffffffffffffffffffffffff1673ffffffffffffffffffffffffffffffffffffffff16815260200190815260200160002091906103d09291906108d9565b5081816000803373ffffffffffffffffffffffffffffffffffffffff1673ffffffffffffffffffffffffffffffffffffffff168152602001908152602001600020919061041e9291906108d9565b507fe67eb94f4d98df43e123dcc41c2b3f42db4847fa755bbe7823852aba3ccc2b5f3360405161044e9190610c35565b60405180910390a150505050565b60008060003373ffffffffffffffffffffffffffffffffffffffff1673ffffffffffffffffffffffffffffffffffffffff16815260200190815260200160002080546104a790610db8565b9050116104e9576040517f08c379a00000000000000000000000000000000000000000000000000000000081526004016104e090610cd4565b60405180910390fd5b60005b6002805490508110156106d5573373ffffffffffffffffffffffffffffffffffffffff166002828154811061054a577f4e487b7100000000000000000000000000000000000000000000000000000000600052603260045260246000fd5b9060005260206000200160009054906101000a900473ffffffffffffffffffffffffffffffffffffffff1673ffffffffffffffffffffffffffffffffffffffff1614156106c257600281815481106105cb577f4e487b7100000000000000000000000000000000000000000000000000000000600052603260045260246000fd5b9060005260206000200160006101000a81549073ffffffffffffffffffffffffffffffffffffffff021916905560405180602001604052806000815250600160003373ffffffffffffffffffffffffffffffffffffffff1673ffffffffffffffffffffffffffffffffffffffff168152602001908152602001600020908051906020019061065a92919061095f565b50604051806020016040528060008152506000803373ffffffffffffffffffffffffffffffffffffffff1673ffffffffffffffffffffffffffffffffffffffff16815260200190815260200160002090805190602001906106bc92919061095f565b506106d5565b80806106cd90610dea565b9150506104ec565b507fa8fd4e63eda630c9b2c4d4fef717fa0f8382d727b817a59b86aa6c5aad2f7cbc336040516107059190610c35565b60405180910390a1565b60008060003373ffffffffffffffffffffffffffffffffffffffff1673ffffffffffffffffffffffffffffffffffffffff168152602001908152602001600020805461075a90610db8565b90501461079c576040517f08c379a000000000000000000000000000000000000000000000000000000000815260040161079390610c94565b60405180910390fd5b8383600160003373ffffffffffffffffffffffffffffffffffffffff1673ffffffffffffffffffffffffffffffffffffffff16815260200190815260200160002091906107ea9291906108d9565b5081816000803373ffffffffffffffffffffffffffffffffffffffff1673ffffffffffffffffffffffffffffffffffffffff16815260200190815260200160002091906108389291906108d9565b506002339080600181540180825580915050600190039060005260206000200160009091909190916101000a81548173ffffffffffffffffffffffffffffffffffffffff021916908373ffffffffffffffffffffffffffffffffffffffff1602179055507ffd5b1ecd2850ec7f38e44ab5a5ae922bf04b40eea6ebe4ecae4dedb67838df0e336040516108cb9190610c35565b60405180910390a150505050565b8280546108e590610db8565b90600052602060002090601f016020900481019282610907576000855561094e565b82601f1061092057803560ff191683800117855561094e565b8280016001018555821561094e579182015b8281111561094d578235825591602001919060010190610932565b5b50905061095b91906109e5565b5090565b82805461096b90610db8565b90600052602060002090601f01602090048101928261098d57600085556109d4565b82601f106109a657805160ff19168380011785556109d4565b828001600101855582156109d4579182015b828111156109d35782518255916020019190600101906109b8565b5b5090506109e191906109e5565b5090565b5b808211156109fe5760008160009055506001016109e6565b5090565b600081359050610a1181610fdb565b92915050565b60008083601f840112610a2957600080fd5b8235905067ffffffffffffffff811115610a4257600080fd5b602083019150836001820283011115610a5a57600080fd5b9250929050565b600060208284031215610a7357600080fd5b6000610a8184828501610a02565b91505092915050565b60008060008060408587031215610aa057600080fd5b600085013567ffffffffffffffff811115610aba57600080fd5b610ac687828801610a17565b9450945050602085013567ffffffffffffffff811115610ae557600080fd5b610af187828801610a17565b925092505092959194509250565b6000610b0b8383610b17565b60208301905092915050565b610b2081610d49565b82525050565b610b2f81610d49565b82525050565b6000610b4082610d04565b610b4a8185610d27565b9350610b5583610cf4565b8060005b83811015610b86578151610b6d8882610aff565b9750610b7883610d1a565b925050600181019050610b59565b5085935050505092915050565b6000610b9e82610d0f565b610ba88185610d38565b9350610bb8818560208601610d85565b610bc181610e91565b840191505092915050565b6000610bd9604f83610d38565b9150610be482610ea2565b606082019050919050565b6000610bfc605a83610d38565b9150610c0782610f17565b606082019050919050565b6000610c1f603383610d38565b9150610c2a82610f8c565b604082019050919050565b6000602082019050610c4a6000830184610b26565b92915050565b60006020820190508181036000830152610c6a8184610b35565b905092915050565b60006020820190508181036000830152610c8c8184610b93565b905092915050565b60006020820190508181036000830152610cad81610bcc565b9050919050565b60006020820190508181036000830152610ccd81610bef565b9050919050565b60006020820190508181036000830152610ced81610c12565b9050919050565b6000819050602082019050919050565b600081519050919050565b600081519050919050565b6000602082019050919050565b600082825260208201905092915050565b600082825260208201905092915050565b6000610d5482610d5b565b9050919050565b600073ffffffffffffffffffffffffffffffffffffffff82169050919050565b6000819050919050565b60005b83811015610da3578082015181840152602081019050610d88565b83811115610db2576000848401525b50505050565b60006002820490506001821680610dd057607f821691505b60208210811415610de457610de3610e62565b5b50919050565b6000610df582610d7b565b91507fffffffffffffffffffffffffffffffffffffffffffffffffffffffffffffffff821415610e2857610e27610e33565b5b600182019050919050565b7f4e487b7100000000000000000000000000000000000000000000000000000000600052601160045260246000fd5b7f4e487b7100000000000000000000000000000000000000000000000000000000600052602260045260246000fd5b6000601f19601f8301169050919050565b7f54686973206164647265737320697320616c726561647920726567697374657260008201527f65642e204d6f64696679206e616d6520616e642062696f2077697468206d6f6460208201527f6966794e616d65416e6442696f28290000000000000000000000000000000000604082015250565b7f54686973206164647265737320646f6573206e6f7420686176652061206e616d60008201527f6520616e642062696f20746f206d6f646966792e20416464206e616d6520616e60208201527f642062696f2077697468206164644e616d65416e6442696f2829000000000000604082015250565b7f54686973206164647265737320646f6573206e6f7420686176652061206e616d60008201527f6520616e642062696f20746f2072656d6f766500000000000000000000000000602082015250565b610fe481610d49565b8114610fef57600080fd5b5056fea26469706673582212206bc205bacabeb1c661b81e5d7b6c0dd66ba6f438abce63f9b7f2791ed44a798364736f6c63430008040033",
  "linkReferences": {},
  "deployedLinkReferences": {}
}