{
  "_format": "hh-sol-artifact-1",
  "contractName": "IdentityAggregator",
  "sourceName": "contracts/IdentityAggregator.sol",
  "abi": [
    {
      "anonymous": false,
      "inputs": [
        {
          "indexed": false,
          "internalType": "string",
          "name": "contractKeyword",
          "type": "string"
        }
      ],
      "name": "AddSupportForContract",
      "type": "event"
    },
    {
      "anonymous": false,
      "inputs": [
        {
          "indexed": true,
          "internalType": "address",
          "name": "previousOwner",
          "type": "address"
        },
        {
          "indexed": true,
          "internalType": "address",
          "name": "newOwner",
          "type": "address"
        }
      ],
      "name": "OwnershipTransferred",
      "type": "event"
    },
    {
      "anonymous": false,
      "inputs": [
        {
          "indexed": false,
          "internalType": "string",
          "name": "contractKeyword",
          "type": "string"
        }
      ],
      "name": "RemoveSupportForContract",
      "type": "event"
    },
    {
      "inputs": [
        {
          "internalType": "string",
          "name": "keyword",
          "type": "string"
        },
        {
          "internalType": "address",
          "name": "contractAddress",
          "type": "address"
        }
      ],
      "name": "addVerifyJWTContract",
      "outputs": [],
      "stateMutability": "nonpayable",
      "type": "function"
    },
    {
      "inputs": [
        {
          "internalType": "string",
          "name": "",
          "type": "string"
        }
      ],
      "name": "contractAddrForKeyword",
      "outputs": [
        {
          "internalType": "address",
          "name": "",
          "type": "address"
        }
      ],
      "stateMutability": "view",
      "type": "function"
    },
    {
      "inputs": [
        {
          "internalType": "address",
          "name": "user",
          "type": "address"
        }
      ],
      "name": "getAllAccounts",
      "outputs": [
        {
          "internalType": "bytes[]",
          "name": "creds",
          "type": "bytes[]"
        },
        {
          "internalType": "string",
          "name": "name",
          "type": "string"
        },
        {
          "internalType": "string",
          "name": "bio",
          "type": "string"
        }
      ],
      "stateMutability": "view",
      "type": "function"
    },
    {
      "inputs": [],
      "name": "getBiosContractAddress",
      "outputs": [
        {
          "internalType": "address",
          "name": "",
          "type": "address"
        }
      ],
      "stateMutability": "view",
      "type": "function"
    },
    {
      "inputs": [],
      "name": "getKeywords",
      "outputs": [
        {
          "internalType": "string[]",
          "name": "",
          "type": "string[]"
        }
      ],
      "stateMutability": "view",
      "type": "function"
    },
    {
      "inputs": [],
      "name": "owner",
      "outputs": [
        {
          "internalType": "address",
          "name": "",
          "type": "address"
        }
      ],
      "stateMutability": "view",
      "type": "function"
    },
    {
      "inputs": [
        {
          "internalType": "string",
          "name": "keyword",
          "type": "string"
        }
      ],
      "name": "removeSupportFor",
      "outputs": [],
      "stateMutability": "nonpayable",
      "type": "function"
    },
    {
      "inputs": [],
      "name": "renounceOwnership",
      "outputs": [],
      "stateMutability": "nonpayable",
      "type": "function"
    },
    {
      "inputs": [
        {
          "internalType": "address",
          "name": "biosContract_",
          "type": "address"
        }
      ],
      "name": "setBiosContractAddress",
      "outputs": [],
      "stateMutability": "nonpayable",
      "type": "function"
    },
    {
      "inputs": [
        {
          "internalType": "address",
          "name": "newOwner",
          "type": "address"
        }
      ],
      "name": "transferOwnership",
      "outputs": [],
      "stateMutability": "nonpayable",
      "type": "function"
    }
  ],
  "bytecode": "0x608060405234801561001057600080fd5b5061002d61002261003260201b60201c565b61003a60201b60201c565b6100fe565b600033905090565b60008060009054906101000a900473ffffffffffffffffffffffffffffffffffffffff169050816000806101000a81548173ffffffffffffffffffffffffffffffffffffffff021916908373ffffffffffffffffffffffffffffffffffffffff1602179055508173ffffffffffffffffffffffffffffffffffffffff168173ffffffffffffffffffffffffffffffffffffffff167f8be0079c531659141344cd1fd0a4f28419497f9722a3daafe3b4186f6b6457e060405160405180910390a35050565b611d828061010d6000396000f3fe608060405234801561001057600080fd5b506004361061009e5760003560e01c806373a3b8b21161006657806373a3b8b2146101375780638da5cb5b14610153578063966ddbd914610171578063e56f6784146101a1578063f2fde38b146101bd5761009e565b806345a2db5c146100a35780634baf0f1f146100d55780634d13610c146100f157806353c705c31461010f578063715018a61461012d575b600080fd5b6100bd60048036038101906100b891906111f2565b6101d9565b6040516100cc939291906117c3565b60405180910390f35b6100ef60048036038101906100ea919061125c565b6105a6565b005b6100f96108bb565b604051610106919061180f565b60405180910390f35b610117610994565b60405161012491906117a8565b60405180910390f35b6101356109be565b005b610151600480360381019061014c91906111f2565b610a46565b005b61015b610b06565b60405161016891906117a8565b60405180910390f35b61018b600480360381019061018691906112f9565b610b2f565b60405161019891906117a8565b60405180910390f35b6101bb60048036038101906101b691906112a1565b610b78565b005b6101d760048036038101906101d291906111f2565b610d6e565b005b6060806060600060038054905067ffffffffffffffff811115610225577f4e487b7100000000000000000000000000000000000000000000000000000000600052604160045260246000fd5b60405190808252806020026020018201604052801561025857816020015b60608152602001906001900390816102435790505b50905060005b600380549050811015610446576000600382815481106102a7577f4e487b7100000000000000000000000000000000000000000000000000000000600052603260045260246000fd5b9060005260206000200180546102bc90611ad5565b905014610433576000600160038381548110610301577f4e487b7100000000000000000000000000000000000000000000000000000000600052603260045260246000fd5b906000526020600020016040516103189190611791565b908152602001604051809103902060009054906101000a900473ffffffffffffffffffffffffffffffffffffffff169050600081905060008173ffffffffffffffffffffffffffffffffffffffff166383af17f78a6040518263ffffffff1660e01b815260040161038991906117a8565b60006040518083038186803b1580156103a157600080fd5b505afa1580156103b5573d6000803e3d6000fd5b505050506040513d6000823e3d601f19601f820116820180604052508101906103de919061121b565b9050600081511461042f5780858581518110610423577f4e487b7100000000000000000000000000000000000000000000000000000000600052603260045260246000fd5b60200260200101819052505b5050505b808061043e90611b38565b91505061025e565b506000600460009054906101000a900473ffffffffffffffffffffffffffffffffffffffff16905060008173ffffffffffffffffffffffffffffffffffffffff16632320f00c886040518263ffffffff1660e01b81526004016104a991906117a8565b60006040518083038186803b1580156104c157600080fd5b505afa1580156104d5573d6000803e3d6000fd5b505050506040513d6000823e3d601f19601f820116820180604052508101906104fe919061133a565b905060008273ffffffffffffffffffffffffffffffffffffffff166362e1fb73896040518263ffffffff1660e01b815260040161053b91906117a8565b60006040518083038186803b15801561055357600080fd5b505afa158015610567573d6000803e3d6000fd5b505050506040513d6000823e3d601f19601f82011682018060405250810190610590919061133a565b9050838282965096509650505050509193909250565b6105ae610e66565b73ffffffffffffffffffffffffffffffffffffffff166105cc610b06565b73ffffffffffffffffffffffffffffffffffffffff1614610622576040517f08c379a000000000000000000000000000000000000000000000000000000000815260040161061990611875565b60405180910390fd5b600073ffffffffffffffffffffffffffffffffffffffff166001838360405161064c929190611778565b908152602001604051809103902060009054906101000a900473ffffffffffffffffffffffffffffffffffffffff1673ffffffffffffffffffffffffffffffffffffffff1614156106d2576040517f08c379a00000000000000000000000000000000000000000000000000000000081526004016106c9906118b5565b60405180910390fd5b60005b6003805490508110156108b65782826040516106f2929190611748565b604051809103902060038281548110610734577f4e487b7100000000000000000000000000000000000000000000000000000000600052603260045260246000fd5b9060005260206000200160405161074b9190611761565b604051809103902014156108a35760006001848460405161076d929190611778565b908152602001604051809103902060006101000a81548173ffffffffffffffffffffffffffffffffffffffff021916908373ffffffffffffffffffffffffffffffffffffffff16021790555060405180602001604052806000815250600284846040516107db929190611778565b908152602001604051809103902090805190602001906107fc929190610f32565b506040518060200160405280600081525060038281548110610847577f4e487b7100000000000000000000000000000000000000000000000000000000600052603260045260246000fd5b906000526020600020019080519060200190610864929190610f32565b507fa0b289524f43f6209aef3798ff8c8be040ad7d91bdf64db741d0d1f2ca1b2a078383604051610896929190611831565b60405180910390a16108b6565b80806108ae90611b38565b9150506106d5565b505050565b60606003805480602002602001604051908101604052809291908181526020016000905b8282101561098b5783829060005260206000200180546108fe90611ad5565b80601f016020809104026020016040519081016040528092919081815260200182805461092a90611ad5565b80156109775780601f1061094c57610100808354040283529160200191610977565b820191906000526020600020905b81548152906001019060200180831161095a57829003601f168201915b5050505050815260200190600101906108df565b50505050905090565b6000600460009054906101000a900473ffffffffffffffffffffffffffffffffffffffff16905090565b6109c6610e66565b73ffffffffffffffffffffffffffffffffffffffff166109e4610b06565b73ffffffffffffffffffffffffffffffffffffffff1614610a3a576040517f08c379a0000000000000000000000000000000000000000000000000000000008152600401610a3190611875565b60405180910390fd5b610a446000610e6e565b565b610a4e610e66565b73ffffffffffffffffffffffffffffffffffffffff16610a6c610b06565b73ffffffffffffffffffffffffffffffffffffffff1614610ac2576040517f08c379a0000000000000000000000000000000000000000000000000000000008152600401610ab990611875565b60405180910390fd5b80600460006101000a81548173ffffffffffffffffffffffffffffffffffffffff021916908373ffffffffffffffffffffffffffffffffffffffff16021790555050565b60008060009054906101000a900473ffffffffffffffffffffffffffffffffffffffff16905090565b6001818051602081018201805184825260208301602085012081835280955050505050506000915054906101000a900473ffffffffffffffffffffffffffffffffffffffff1681565b610b80610e66565b73ffffffffffffffffffffffffffffffffffffffff16610b9e610b06565b73ffffffffffffffffffffffffffffffffffffffff1614610bf4576040517f08c379a0000000000000000000000000000000000000000000000000000000008152600401610beb90611875565b60405180910390fd5b600060028484604051610c08929190611778565b90815260200160405180910390208054610c2190611ad5565b905014610c63576040517f08c379a0000000000000000000000000000000000000000000000000000000008152600401610c5a90611895565b60405180910390fd5b6003838390918060018154018082558091505060019003906000526020600020016000909192909192909192909192509190610ca0929190610fb8565b50828260028585604051610cb5929190611778565b90815260200160405180910390209190610cd0929190610fb8565b508060018484604051610ce4929190611778565b908152602001604051809103902060006101000a81548173ffffffffffffffffffffffffffffffffffffffff021916908373ffffffffffffffffffffffffffffffffffffffff1602179055507fa15b49bb74ab6b7edfc369483b5ca0db91913cddacf6133ac2cf4e2d6e63cf518383604051610d61929190611831565b60405180910390a1505050565b610d76610e66565b73ffffffffffffffffffffffffffffffffffffffff16610d94610b06565b73ffffffffffffffffffffffffffffffffffffffff1614610dea576040517f08c379a0000000000000000000000000000000000000000000000000000000008152600401610de190611875565b60405180910390fd5b600073ffffffffffffffffffffffffffffffffffffffff168173ffffffffffffffffffffffffffffffffffffffff161415610e5a576040517f08c379a0000000000000000000000000000000000000000000000000000000008152600401610e5190611855565b60405180910390fd5b610e6381610e6e565b50565b600033905090565b60008060009054906101000a900473ffffffffffffffffffffffffffffffffffffffff169050816000806101000a81548173ffffffffffffffffffffffffffffffffffffffff021916908373ffffffffffffffffffffffffffffffffffffffff1602179055508173ffffffffffffffffffffffffffffffffffffffff168173ffffffffffffffffffffffffffffffffffffffff167f8be0079c531659141344cd1fd0a4f28419497f9722a3daafe3b4186f6b6457e060405160405180910390a35050565b828054610f3e90611ad5565b90600052602060002090601f016020900481019282610f605760008555610fa7565b82601f10610f7957805160ff1916838001178555610fa7565b82800160010185558215610fa7579182015b82811115610fa6578251825591602001919060010190610f8b565b5b509050610fb4919061103e565b5090565b828054610fc490611ad5565b90600052602060002090601f016020900481019282610fe6576000855561102d565b82601f10610fff57803560ff191683800117855561102d565b8280016001018555821561102d579182015b8281111561102c578235825591602001919060010190611011565b5b50905061103a919061103e565b5090565b5b8082111561105757600081600090555060010161103f565b5090565b600061106e611069846118fa565b6118d5565b90508281526020810184848401111561108657600080fd5b611091848285611aa2565b509392505050565b60006110ac6110a78461192b565b6118d5565b9050828152602081018484840111156110c457600080fd5b6110cf848285611a93565b509392505050565b60006110ea6110e58461192b565b6118d5565b90508281526020810184848401111561110257600080fd5b61110d848285611aa2565b509392505050565b60008135905061112481611d35565b92915050565b600082601f83011261113b57600080fd5b815161114b84826020860161105b565b91505092915050565b60008083601f84011261116657600080fd5b8235905067ffffffffffffffff81111561117f57600080fd5b60208301915083600182028301111561119757600080fd5b9250929050565b600082601f8301126111af57600080fd5b81356111bf848260208601611099565b91505092915050565b600082601f8301126111d957600080fd5b81516111e98482602086016110d7565b91505092915050565b60006020828403121561120457600080fd5b600061121284828501611115565b91505092915050565b60006020828403121561122d57600080fd5b600082015167ffffffffffffffff81111561124757600080fd5b6112538482850161112a565b91505092915050565b6000806020838503121561126f57600080fd5b600083013567ffffffffffffffff81111561128957600080fd5b61129585828601611154565b92509250509250929050565b6000806000604084860312156112b657600080fd5b600084013567ffffffffffffffff8111156112d057600080fd5b6112dc86828701611154565b935093505060206112ef86828701611115565b9150509250925092565b60006020828403121561130b57600080fd5b600082013567ffffffffffffffff81111561132557600080fd5b6113318482850161119e565b91505092915050565b60006020828403121561134c57600080fd5b600082015167ffffffffffffffff81111561136657600080fd5b611372848285016111c8565b91505092915050565b600061138783836114c1565b905092915050565b600061139b83836115cb565b905092915050565b6113ac81611a57565b82525050565b60006113bd826119a6565b6113c781856119ec565b9350836020820285016113d98561195c565b8060005b8581101561141557848403895281516113f6858261137b565b9450611401836119d2565b925060208a019950506001810190506113dd565b50829750879550505050505092915050565b6000611432826119b1565b61143c81856119fd565b93508360208202850161144e8561196c565b8060005b8581101561148a578484038952815161146b858261138f565b9450611476836119df565b925060208a01995050600181019050611452565b50829750879550505050505092915050565b60006114a88385611a1f565b93506114b5838584611a93565b82840190509392505050565b60006114cc826119bc565b6114d68185611a0e565b93506114e6818560208601611aa2565b6114ef81611c0e565b840191505092915050565b6000815461150781611ad5565b6115118186611a1f565b9450600182166000811461152c576001811461153d57611570565b60ff19831686528186019350611570565b6115468561197c565b60005b8381101561156857815481890152600182019150602081019050611549565b838801955050505b50505092915050565b60006115858385611a3b565b9350611592838584611a93565b61159b83611c0e565b840190509392505050565b60006115b28385611a4c565b93506115bf838584611a93565b82840190509392505050565b60006115d6826119c7565b6115e08185611a2a565b93506115f0818560208601611aa2565b6115f981611c0e565b840191505092915050565b600061160f826119c7565b6116198185611a3b565b9350611629818560208601611aa2565b61163281611c0e565b840191505092915050565b6000815461164a81611ad5565b6116548186611a4c565b9450600182166000811461166f5760018114611680576116b3565b60ff198316865281860193506116b3565b61168985611991565b60005b838110156116ab5781548189015260018201915060208101905061168c565b838801955050505b50505092915050565b60006116c9602683611a3b565b91506116d482611c1f565b604082019050919050565b60006116ec602083611a3b565b91506116f782611c6e565b602082019050919050565b600061170f602283611a3b565b915061171a82611c97565b604082019050919050565b6000611732603383611a3b565b915061173d82611ce6565b604082019050919050565b600061175582848661149c565b91508190509392505050565b600061176d82846114fa565b915081905092915050565b60006117858284866115a6565b91508190509392505050565b600061179d828461163d565b915081905092915050565b60006020820190506117bd60008301846113a3565b92915050565b600060608201905081810360008301526117dd81866113b2565b905081810360208301526117f18185611604565b905081810360408301526118058184611604565b9050949350505050565b600060208201905081810360008301526118298184611427565b905092915050565b6000602082019050818103600083015261184c818486611579565b90509392505050565b6000602082019050818103600083015261186e816116bc565b9050919050565b6000602082019050818103600083015261188e816116df565b9050919050565b600060208201905081810360008301526118ae81611702565b9050919050565b600060208201905081810360008301526118ce81611725565b9050919050565b60006118df6118f0565b90506118eb8282611b07565b919050565b6000604051905090565b600067ffffffffffffffff82111561191557611914611bdf565b5b61191e82611c0e565b9050602081019050919050565b600067ffffffffffffffff82111561194657611945611bdf565b5b61194f82611c0e565b9050602081019050919050565b6000819050602082019050919050565b6000819050602082019050919050565b60008190508160005260206000209050919050565b60008190508160005260206000209050919050565b600081519050919050565b600081519050919050565b600081519050919050565b600081519050919050565b6000602082019050919050565b6000602082019050919050565b600082825260208201905092915050565b600082825260208201905092915050565b600082825260208201905092915050565b600081905092915050565b600082825260208201905092915050565b600082825260208201905092915050565b600081905092915050565b6000611a6282611a69565b9050919050565b600073ffffffffffffffffffffffffffffffffffffffff82169050919050565b6000819050919050565b82818337600083830152505050565b60005b83811015611ac0578082015181840152602081019050611aa5565b83811115611acf576000848401525b50505050565b60006002820490506001821680611aed57607f821691505b60208210811415611b0157611b00611bb0565b5b50919050565b611b1082611c0e565b810181811067ffffffffffffffff82111715611b2f57611b2e611bdf565b5b80604052505050565b6000611b4382611a89565b91507fffffffffffffffffffffffffffffffffffffffffffffffffffffffffffffffff821415611b7657611b75611b81565b5b600182019050919050565b7f4e487b7100000000000000000000000000000000000000000000000000000000600052601160045260246000fd5b7f4e487b7100000000000000000000000000000000000000000000000000000000600052602260045260246000fd5b7f4e487b7100000000000000000000000000000000000000000000000000000000600052604160045260246000fd5b6000601f19601f8301169050919050565b7f4f776e61626c653a206e6577206f776e657220697320746865207a65726f206160008201527f6464726573730000000000000000000000000000000000000000000000000000602082015250565b7f4f776e61626c653a2063616c6c6572206973206e6f7420746865206f776e6572600082015250565b7f54686973206b6579776f726420697320616c7265616479206265696e6720757360008201527f6564000000000000000000000000000000000000000000000000000000000000602082015250565b7f5468657265206973206e6f20636f72726573706f6e64696e6720636f6e74726160008201527f637420666f722074686973206b6579776f726400000000000000000000000000602082015250565b611d3e81611a57565b8114611d4957600080fd5b5056fea2646970667358221220978f2119c88fa93216efaded45b1d83b566614bdd244e77993541f8d1440aa9064736f6c63430008040033",
  "linkReferences": {},
  "deployedLinkReferences": {}
}